{"contracts/Raffle.sol":{"Raffle":{"abi":[{"inputs":[{"internalType":"address","name":"vrfCoordinatorV2","type":"address"},{"internalType":"uint256","name":"entranceFee","type":"uint256"},{"internalType":"bytes32","name":"keyHash","type":"bytes32"},{"internalType":"uint256","name":"subId","type":"uint256"},{"internalType":"uint32","name":"callbackGasLimit","type":"uint32"},{"internalType":"uint256","name":"interval","type":"uint256"}],"stateMutability":"nonpayable","type":"constructor"},{"inputs":[{"internalType":"address","name":"have","type":"address"},{"internalType":"address","name":"want","type":"address"}],"name":"OnlyCoordinatorCanFulfill","type":"error"},{"inputs":[{"internalType":"address","name":"have","type":"address"},{"internalType":"address","name":"owner","type":"address"},{"internalType":"address","name":"coordinator","type":"address"}],"name":"OnlyOwnerOrCoordinator","type":"error"},{"inputs":[],"name":"Raffle__NotEnoughETHEntered","type":"error"},{"inputs":[],"name":"Raffle__NotOpen","type":"error"},{"inputs":[],"name":"Raffle__TransferFailed","type":"error"},{"inputs":[{"internalType":"uint256","name":"currentBalance","type":"uint256"},{"internalType":"uint256","name":"numPlayers","type":"uint256"},{"internalType":"uint256","name":"raffleState","type":"uint256"}],"name":"Raffle__UpKeepNotNeeded","type":"error"},{"inputs":[],"name":"ZeroAddress","type":"error"},{"anonymous":false,"inputs":[{"indexed":false,"internalType":"address","name":"vrfCoordinator","type":"address"}],"name":"CoordinatorSet","type":"event"},{"anonymous":false,"inputs":[{"indexed":true,"internalType":"address","name":"from","type":"address"},{"indexed":true,"internalType":"address","name":"to","type":"address"}],"name":"OwnershipTransferRequested","type":"event"},{"anonymous":false,"inputs":[{"indexed":true,"internalType":"address","name":"from","type":"address"},{"indexed":true,"internalType":"address","name":"to","type":"address"}],"name":"OwnershipTransferred","type":"event"},{"anonymous":false,"inputs":[{"indexed":true,"internalType":"address","name":"player","type":"address"}],"name":"RaffleEntered","type":"event"},{"anonymous":false,"inputs":[{"indexed":true,"internalType":"uint256","name":"requestId","type":"uint256"}],"name":"RequestRandomWinner","type":"event"},{"anonymous":false,"inputs":[{"indexed":true,"internalType":"address","name":"winner","type":"address"}],"name":"WinnerPicked","type":"event"},{"inputs":[],"name":"acceptOwnership","outputs":[],"stateMutability":"nonpayable","type":"function"},{"inputs":[{"internalType":"bytes","name":"","type":"bytes"}],"name":"checkUpkeep","outputs":[{"internalType":"bool","name":"upkeepNeeded","type":"bool"},{"internalType":"bytes","name":"","type":"bytes"}],"stateMutability":"nonpayable","type":"function"},{"inputs":[],"name":"enterRaffle","outputs":[],"stateMutability":"payable","type":"function"},{"inputs":[],"name":"getConfirmations","outputs":[{"internalType":"uint256","name":"","type":"uint256"}],"stateMutability":"pure","type":"function"},{"inputs":[],"name":"getEntranceFee","outputs":[{"internalType":"uint256","name":"","type":"uint256"}],"stateMutability":"view","type":"function"},{"inputs":[],"name":"getInterval","outputs":[{"internalType":"uint256","name":"","type":"uint256"}],"stateMutability":"view","type":"function"},{"inputs":[],"name":"getLatestTimeStamp","outputs":[{"internalType":"uint256","name":"","type":"uint256"}],"stateMutability":"view","type":"function"},{"inputs":[],"name":"getNumWords","outputs":[{"internalType":"uint256","name":"","type":"uint256"}],"stateMutability":"pure","type":"function"},{"inputs":[{"internalType":"uint256","name":"index","type":"uint256"}],"name":"getPlayer","outputs":[{"internalType":"address","name":"","type":"address"}],"stateMutability":"view","type":"function"},{"inputs":[],"name":"getRaffleState","outputs":[{"internalType":"enum Raffle.RaffleState","name":"","type":"uint8"}],"stateMutability":"view","type":"function"},{"inputs":[],"name":"getRecentWinner","outputs":[{"internalType":"address","name":"","type":"address"}],"stateMutability":"view","type":"function"},{"inputs":[],"name":"noOfPlayers","outputs":[{"internalType":"uint256","name":"","type":"uint256"}],"stateMutability":"view","type":"function"},{"inputs":[],"name":"owner","outputs":[{"internalType":"address","name":"","type":"address"}],"stateMutability":"view","type":"function"},{"inputs":[{"internalType":"bytes","name":"","type":"bytes"}],"name":"performUpkeep","outputs":[],"stateMutability":"nonpayable","type":"function"},{"inputs":[{"internalType":"uint256","name":"requestId","type":"uint256"},{"internalType":"uint256[]","name":"randomWords","type":"uint256[]"}],"name":"rawFulfillRandomWords","outputs":[],"stateMutability":"nonpayable","type":"function"},{"inputs":[],"name":"s_vrfCoordinator","outputs":[{"internalType":"contract IVRFCoordinatorV2Plus","name":"","type":"address"}],"stateMutability":"view","type":"function"},{"inputs":[{"internalType":"address","name":"_vrfCoordinator","type":"address"}],"name":"setCoordinator","outputs":[],"stateMutability":"nonpayable","type":"function"},{"inputs":[{"internalType":"address","name":"to","type":"address"}],"name":"transferOwnership","outputs":[],"stateMutability":"nonpayable","type":"function"}],"devdoc":{"kind":"dev","methods":{"checkUpkeep(bytes)":{"details":"This is the function that chain link keeper first calls it returns true only if 1.Given time is passed 2.Atleast one player in s_players array and contract must have some eth 3.Subscription must be funded 4.The lottery should be in \"OPEN\" state"}},"version":1},"evm":{"bytecode":{"linkReferences":{},"object":"6101406040523480156200001257600080fd5b5060405162002a2f38038062002a2f8339818101604052810190620000389190620004dc565b85338060008073ffffffffffffffffffffffffffffffffffffffff168273ffffffffffffffffffffffffffffffffffffffff1603620000ae576040517f08c379a0000000000000000000000000000000000000000000000000000000008152600401620000a590620005d9565b60405180910390fd5b816000806101000a81548173ffffffffffffffffffffffffffffffffffffffff021916908373ffffffffffffffffffffffffffffffffffffffff160217905550600073ffffffffffffffffffffffffffffffffffffffff168173ffffffffffffffffffffffffffffffffffffffff1614620001355762000134816200028c60201b60201c565b5b505050600073ffffffffffffffffffffffffffffffffffffffff168173ffffffffffffffffffffffffffffffffffffffff16036200019f576040517fd92e233d00000000000000000000000000000000000000000000000000000000815260040160405180910390fd5b80600260006101000a81548173ffffffffffffffffffffffffffffffffffffffff021916908373ffffffffffffffffffffffffffffffffffffffff160217905550508461010081815250508573ffffffffffffffffffffffffffffffffffffffff1660808173ffffffffffffffffffffffffffffffffffffffff16815250508360a081815250508260c081815250508163ffffffff1660e08163ffffffff16815250506000600460146101000a81548160ff021916908360018111156200026b576200026a620005fb565b5b0217905550426005819055508061012081815250505050505050506200069c565b3373ffffffffffffffffffffffffffffffffffffffff168173ffffffffffffffffffffffffffffffffffffffff1603620002fd576040517f08c379a0000000000000000000000000000000000000000000000000000000008152600401620002f4906200067a565b60405180910390fd5b80600160006101000a81548173ffffffffffffffffffffffffffffffffffffffff021916908373ffffffffffffffffffffffffffffffffffffffff1602179055508073ffffffffffffffffffffffffffffffffffffffff1660008054906101000a900473ffffffffffffffffffffffffffffffffffffffff1673ffffffffffffffffffffffffffffffffffffffff167fed8889f560326eb138920d842192f0eb3dd22b4f139c87a2c57538e05bae127860405160405180910390a350565b600080fd5b600073ffffffffffffffffffffffffffffffffffffffff82169050919050565b6000620003ed82620003c0565b9050919050565b620003ff81620003e0565b81146200040b57600080fd5b50565b6000815190506200041f81620003f4565b92915050565b6000819050919050565b6200043a8162000425565b81146200044657600080fd5b50565b6000815190506200045a816200042f565b92915050565b6000819050919050565b620004758162000460565b81146200048157600080fd5b50565b60008151905062000495816200046a565b92915050565b600063ffffffff82169050919050565b620004b6816200049b565b8114620004c257600080fd5b50565b600081519050620004d681620004ab565b92915050565b60008060008060008060c08789031215620004fc57620004fb620003bb565b5b60006200050c89828a016200040e565b96505060206200051f89828a0162000449565b95505060406200053289828a0162000484565b94505060606200054589828a0162000449565b93505060806200055889828a01620004c5565b92505060a06200056b89828a0162000449565b9150509295509295509295565b600082825260208201905092915050565b7f43616e6e6f7420736574206f776e657220746f207a65726f0000000000000000600082015250565b6000620005c160188362000578565b9150620005ce8262000589565b602082019050919050565b60006020820190508181036000830152620005f481620005b2565b9050919050565b7f4e487b7100000000000000000000000000000000000000000000000000000000600052602160045260246000fd5b7f43616e6e6f74207472616e7366657220746f2073656c66000000000000000000600082015250565b60006200066260178362000578565b91506200066f826200062a565b602082019050919050565b60006020820190508181036000830152620006958162000653565b9050919050565b60805160a05160c05160e0516101005161012051612331620006fe60003960008181610a3501528181610a5d0152610ea5015260008181610400015261057001526000610810015260006107df015260006107b90152600050506123316000f3fe6080604052600436106101095760003560e01c806379ba5097116100955780639eccacf6116100645780639eccacf614610315578063c361ce8314610340578063d4980c411461036b578063e55ae4e814610396578063f2fde38b146103d357610109565b806379ba50971461027f5780638da5cb5b146102965780638ea98117146102c157806391ad27b4146102ea57610109565b8063320229eb116100dc578063320229eb146101975780634585e33b146101c2578063473f1ddc146101eb57806353a2c19a146102165780636e04ff0d1461024157610109565b806309bc33a71461010e578063115cbaf5146101395780631fe543e3146101645780632cfcc5391461018d575b600080fd5b34801561011a57600080fd5b506101236103fc565b604051610130919061169a565b60405180910390f35b34801561014557600080fd5b5061014e610424565b60405161015b919061172c565b60405180910390f35b34801561017057600080fd5b5061018b600480360381019061018691906117ec565b61043b565b005b610195610501565b005b3480156101a357600080fd5b506101ac610670565b6040516101b9919061169a565b60405180910390f35b3480156101ce57600080fd5b506101e960048036038101906101e491906118a2565b61067a565b005b3480156101f757600080fd5b50610200610937565b60405161020d9190611930565b60405180910390f35b34801561022257600080fd5b5061022b610961565b604051610238919061169a565b60405180910390f35b34801561024d57600080fd5b5061026860048036038101906102639190611a8c565b610970565b604051610276929190611b6f565b60405180910390f35b34801561028b57600080fd5b50610294610b02565b005b3480156102a257600080fd5b506102ab610c97565b6040516102b89190611930565b60405180910390f35b3480156102cd57600080fd5b506102e860048036038101906102e39190611bcb565b610cc0565b005b3480156102f657600080fd5b506102ff610ea1565b60405161030c919061169a565b60405180910390f35b34801561032157600080fd5b5061032a610ec9565b6040516103379190611c57565b60405180910390f35b34801561034c57600080fd5b50610355610eef565b604051610362919061169a565b60405180910390f35b34801561037757600080fd5b50610380610efc565b60405161038d919061169a565b60405180910390f35b3480156103a257600080fd5b506103bd60048036038101906103b89190611c72565b610f09565b6040516103ca9190611930565b60405180910390f35b3480156103df57600080fd5b506103fa60048036038101906103f59190611bcb565b610f51565b005b60007f0000000000000000000000000000000000000000000000000000000000000000905090565b6000600460149054906101000a900460ff16905090565b600260009054906101000a900473ffffffffffffffffffffffffffffffffffffffff1673ffffffffffffffffffffffffffffffffffffffff163373ffffffffffffffffffffffffffffffffffffffff16146104f15733600260009054906101000a900473ffffffffffffffffffffffffffffffffffffffff166040517f1cf993f40000000000000000000000000000000000000000000000000000000081526004016104e8929190611c9f565b60405180910390fd5b6104fc838383610f65565b505050565b60006001811115610515576105146116b5565b5b600460149054906101000a900460ff166001811115610537576105366116b5565b5b1461056e576040517f1425571c00000000000000000000000000000000000000000000000000000000815260040160405180910390fd5b7f00000000000000000000000000000000000000000000000000000000000000003410156105c8576040517fbd4e069500000000000000000000000000000000000000000000000000000000815260040160405180910390fd5b6003339080600181540180825580915050600190039060005260206000200160009091909190916101000a81548173ffffffffffffffffffffffffffffffffffffffff021916908373ffffffffffffffffffffffffffffffffffffffff1602179055503373ffffffffffffffffffffffffffffffffffffffff167f634f3211e3a4e43fee5a21ad9f87ca153b300fc78b1c557a2057dbe9c63bcb4760405160405180910390a2565b6000600554905090565b600061069460405180602001604052806000815250610970565b509050806107035747600380549050600460149054906101000a900460ff1660018111156106c5576106c46116b5565b5b6040517f3a8d60860000000000000000000000000000000000000000000000000000000081526004016106fa93929190611cc8565b60405180910390fd5b6001600460146101000a81548160ff02191690836001811115610729576107286116b5565b5b021790555061076c6040518060400160405280601a81526020017f52657175657374696e672072616e646f6d20776f7264732e2e2e000000000000815250611201565b6000600260009054906101000a900473ffffffffffffffffffffffffffffffffffffffff1673ffffffffffffffffffffffffffffffffffffffff16639b1c385e6040518060c001604052807f000000000000000000000000000000000000000000000000000000000000000081526020017f00000000000000000000000000000000000000000000000000000000000000008152602001600361ffff1681526020017f000000000000000000000000000000000000000000000000000000000000000063ffffffff168152602001600163ffffffff16815260200161086160405180602001604052806000151581525061129a565b8152506040518263ffffffff1660e01b81526004016108809190611e36565b6020604051808303816000875af115801561089f573d6000803e3d6000fd5b505050506040513d601f19601f820116820180604052508101906108c39190611e6d565b90506109046040518060400160405280601f81526020017f52616e646f6d20776f7264732072657175657374656420776974682049443a0081525082611332565b807f6700fef9fd9c98d6e3060eecfb082ea7ad01c71a1fbfdc8eaab73abf937ff3b260405160405180910390a250505050565b6000600460009054906101000a900473ffffffffffffffffffffffffffffffffffffffff16905090565b6000600163ffffffff16905090565b600060606000806001811115610989576109886116b5565b5b600460149054906101000a900460ff1660018111156109ab576109aa6116b5565b5b1490506109fa6040518060400160405280601881526020017f54696d65205374616d7020446966666572656e6365203a200000000000000000815250600554426109f59190611ec9565b611332565b610a596040518060400160405280600881526020017f496e74657276616c0000000000000000000000000000000000000000000000008152507f0000000000000000000000000000000000000000000000000000000000000000611332565b60007f000000000000000000000000000000000000000000000000000000000000000060055442610a8a9190611ec9565b11905060008060038054905011905060008047119050838015610aaa5750825b8015610ab35750815b8015610abc5750805b9550856040518060400160405280600281526020017f30780000000000000000000000000000000000000000000000000000000000008152509550955050505050915091565b600160009054906101000a900473ffffffffffffffffffffffffffffffffffffffff1673ffffffffffffffffffffffffffffffffffffffff163373ffffffffffffffffffffffffffffffffffffffff1614610b92576040517f08c379a0000000000000000000000000000000000000000000000000000000008152600401610b8990611f5a565b60405180910390fd5b60008060009054906101000a900473ffffffffffffffffffffffffffffffffffffffff169050336000806101000a81548173ffffffffffffffffffffffffffffffffffffffff021916908373ffffffffffffffffffffffffffffffffffffffff1602179055506000600160006101000a81548173ffffffffffffffffffffffffffffffffffffffff021916908373ffffffffffffffffffffffffffffffffffffffff1602179055503373ffffffffffffffffffffffffffffffffffffffff168173ffffffffffffffffffffffffffffffffffffffff167f8be0079c531659141344cd1fd0a4f28419497f9722a3daafe3b4186f6b6457e060405160405180910390a350565b60008060009054906101000a900473ffffffffffffffffffffffffffffffffffffffff16905090565b610cc8610c97565b73ffffffffffffffffffffffffffffffffffffffff163373ffffffffffffffffffffffffffffffffffffffff1614158015610d515750600260009054906101000a900473ffffffffffffffffffffffffffffffffffffffff1673ffffffffffffffffffffffffffffffffffffffff163373ffffffffffffffffffffffffffffffffffffffff1614155b15610dc05733610d5f610c97565b600260009054906101000a900473ffffffffffffffffffffffffffffffffffffffff166040517f061db9c1000000000000000000000000000000000000000000000000000000008152600401610db793929190611f7a565b60405180910390fd5b600073ffffffffffffffffffffffffffffffffffffffff168173ffffffffffffffffffffffffffffffffffffffff1603610e26576040517fd92e233d00000000000000000000000000000000000000000000000000000000815260040160405180910390fd5b80600260006101000a81548173ffffffffffffffffffffffffffffffffffffffff021916908373ffffffffffffffffffffffffffffffffffffffff1602179055507fd1a6a14209a385a964d036e404cb5cfb71f4000cdb03c9366292430787261be681604051610e969190611930565b60405180910390a150565b60007f0000000000000000000000000000000000000000000000000000000000000000905090565b600260009054906101000a900473ffffffffffffffffffffffffffffffffffffffff1681565b6000600361ffff16905090565b6000600380549050905090565b600060038281548110610f1f57610f1e611fb1565b5b9060005260206000200160009054906101000a900473ffffffffffffffffffffffffffffffffffffffff169050919050565b610f596113ce565b610f628161145e565b50565b610f866040518060600160405280602681526020016122d660269139611201565b600060038054905011610fce576040517f08c379a0000000000000000000000000000000000000000000000000000000008152600401610fc59061202c565b60405180910390fd5b600060038054905083836000818110610fea57610fe9611fb1565b5b90506020020135610ffb919061207b565b905060006003828154811061101357611012611fb1565b5b9060005260206000200160009054906101000a900473ffffffffffffffffffffffffffffffffffffffff16905080600460006101000a81548173ffffffffffffffffffffffffffffffffffffffff021916908373ffffffffffffffffffffffffffffffffffffffff160217905550600067ffffffffffffffff81111561109c5761109b611961565b5b6040519080825280602002602001820160405280156110ca5781602001602082028036833780820191505090505b50600390805190602001906110e09291906115d0565b506000600460146101000a81548160ff02191690836001811115611107576111066116b5565b5b02179055504260058190555060008173ffffffffffffffffffffffffffffffffffffffff1647604051611139906120dd565b60006040518083038185875af1925050503d8060008114611176576040519150601f19603f3d011682016040523d82523d6000602084013e61117b565b606091505b50509050806111b6576040517fa1d04b3900000000000000000000000000000000000000000000000000000000815260040160405180910390fd5b8173ffffffffffffffffffffffffffffffffffffffff167f5b690ec4a06fe979403046eaeea5b3ce38524683c3001f662c8b5a829632f7df60405160405180910390a2505050505050565b611297816040516024016112159190612136565b6040516020818303038152906040527f41304fac000000000000000000000000000000000000000000000000000000007bffffffffffffffffffffffffffffffffffffffffffffffffffffffff19166020820180517bffffffffffffffffffffffffffffffffffffffffffffffffffffffff838183161783525050505061158a565b50565b60607f92fd13387c7fe7befbc38d303d6468778fb9731bc4583f17d92989c6fcfdeaaa826040516024016112ce9190612183565b604051602081830303815290604052907bffffffffffffffffffffffffffffffffffffffffffffffffffffffff19166020820180517bffffffffffffffffffffffffffffffffffffffffffffffffffffffff83818316178352505050509050919050565b6113ca828260405160240161134892919061219e565b6040516020818303038152906040527fb60e72cc000000000000000000000000000000000000000000000000000000007bffffffffffffffffffffffffffffffffffffffffffffffffffffffff19166020820180517bffffffffffffffffffffffffffffffffffffffffffffffffffffffff838183161783525050505061158a565b5050565b60008054906101000a900473ffffffffffffffffffffffffffffffffffffffff1673ffffffffffffffffffffffffffffffffffffffff163373ffffffffffffffffffffffffffffffffffffffff161461145c576040517f08c379a00000000000000000000000000000000000000000000000000000000081526004016114539061221a565b60405180910390fd5b565b3373ffffffffffffffffffffffffffffffffffffffff168173ffffffffffffffffffffffffffffffffffffffff16036114cc576040517f08c379a00000000000000000000000000000000000000000000000000000000081526004016114c390612286565b60405180910390fd5b80600160006101000a81548173ffffffffffffffffffffffffffffffffffffffff021916908373ffffffffffffffffffffffffffffffffffffffff1602179055508073ffffffffffffffffffffffffffffffffffffffff1660008054906101000a900473ffffffffffffffffffffffffffffffffffffffff1673ffffffffffffffffffffffffffffffffffffffff167fed8889f560326eb138920d842192f0eb3dd22b4f139c87a2c57538e05bae127860405160405180910390a350565b6115a1816115996115a46115c5565b63ffffffff16565b50565b60006a636f6e736f6c652e6c6f679050600080835160208501845afa505050565b61165a819050919050565b828054828255906000526020600020908101928215611649579160200282015b828111156116485782518260006101000a81548173ffffffffffffffffffffffffffffffffffffffff021916908373ffffffffffffffffffffffffffffffffffffffff160217905550916020019190600101906115f0565b5b5090506116569190611664565b5090565b6116626122a6565b565b5b8082111561167d576000816000905550600101611665565b5090565b6000819050919050565b61169481611681565b82525050565b60006020820190506116af600083018461168b565b92915050565b7f4e487b7100000000000000000000000000000000000000000000000000000000600052602160045260246000fd5b600281106116f5576116f46116b5565b5b50565b6000819050611706826116e4565b919050565b6000611716826116f8565b9050919050565b6117268161170b565b82525050565b6000602082019050611741600083018461171d565b92915050565b6000604051905090565b600080fd5b600080fd5b61176481611681565b811461176f57600080fd5b50565b6000813590506117818161175b565b92915050565b600080fd5b600080fd5b600080fd5b60008083601f8401126117ac576117ab611787565b5b8235905067ffffffffffffffff8111156117c9576117c861178c565b5b6020830191508360208202830111156117e5576117e4611791565b5b9250929050565b60008060006040848603121561180557611804611751565b5b600061181386828701611772565b935050602084013567ffffffffffffffff81111561183457611833611756565b5b61184086828701611796565b92509250509250925092565b60008083601f84011261186257611861611787565b5b8235905067ffffffffffffffff81111561187f5761187e61178c565b5b60208301915083600182028301111561189b5761189a611791565b5b9250929050565b600080602083850312156118b9576118b8611751565b5b600083013567ffffffffffffffff8111156118d7576118d6611756565b5b6118e38582860161184c565b92509250509250929050565b600073ffffffffffffffffffffffffffffffffffffffff82169050919050565b600061191a826118ef565b9050919050565b61192a8161190f565b82525050565b60006020820190506119456000830184611921565b92915050565b600080fd5b6000601f19601f8301169050919050565b7f4e487b7100000000000000000000000000000000000000000000000000000000600052604160045260246000fd5b61199982611950565b810181811067ffffffffffffffff821117156119b8576119b7611961565b5b80604052505050565b60006119cb611747565b90506119d78282611990565b919050565b600067ffffffffffffffff8211156119f7576119f6611961565b5b611a0082611950565b9050602081019050919050565b82818337600083830152505050565b6000611a2f611a2a846119dc565b6119c1565b905082815260208101848484011115611a4b57611a4a61194b565b5b611a56848285611a0d565b509392505050565b600082601f830112611a7357611a72611787565b5b8135611a83848260208601611a1c565b91505092915050565b600060208284031215611aa257611aa1611751565b5b600082013567ffffffffffffffff811115611ac057611abf611756565b5b611acc84828501611a5e565b91505092915050565b60008115159050919050565b611aea81611ad5565b82525050565b600081519050919050565b600082825260208201905092915050565b60005b83811015611b2a578082015181840152602081019050611b0f565b60008484015250505050565b6000611b4182611af0565b611b4b8185611afb565b9350611b5b818560208601611b0c565b611b6481611950565b840191505092915050565b6000604082019050611b846000830185611ae1565b8181036020830152611b968184611b36565b90509392505050565b611ba88161190f565b8114611bb357600080fd5b50565b600081359050611bc581611b9f565b92915050565b600060208284031215611be157611be0611751565b5b6000611bef84828501611bb6565b91505092915050565b6000819050919050565b6000611c1d611c18611c13846118ef565b611bf8565b6118ef565b9050919050565b6000611c2f82611c02565b9050919050565b6000611c4182611c24565b9050919050565b611c5181611c36565b82525050565b6000602082019050611c6c6000830184611c48565b92915050565b600060208284031215611c8857611c87611751565b5b6000611c9684828501611772565b91505092915050565b6000604082019050611cb46000830185611921565b611cc16020830184611921565b9392505050565b6000606082019050611cdd600083018661168b565b611cea602083018561168b565b611cf7604083018461168b565b949350505050565b6000819050919050565b611d1281611cff565b82525050565b611d2181611681565b82525050565b600061ffff82169050919050565b611d3e81611d27565b82525050565b600063ffffffff82169050919050565b611d5d81611d44565b82525050565b600082825260208201905092915050565b6000611d7f82611af0565b611d898185611d63565b9350611d99818560208601611b0c565b611da281611950565b840191505092915050565b600060c083016000830151611dc56000860182611d09565b506020830151611dd86020860182611d18565b506040830151611deb6040860182611d35565b506060830151611dfe6060860182611d54565b506080830151611e116080860182611d54565b5060a083015184820360a0860152611e298282611d74565b9150508091505092915050565b60006020820190508181036000830152611e508184611dad565b905092915050565b600081519050611e678161175b565b92915050565b600060208284031215611e8357611e82611751565b5b6000611e9184828501611e58565b91505092915050565b7f4e487b7100000000000000000000000000000000000000000000000000000000600052601160045260246000fd5b6000611ed482611681565b9150611edf83611681565b9250828203905081811115611ef757611ef6611e9a565b5b92915050565b600082825260208201905092915050565b7f4d7573742062652070726f706f736564206f776e657200000000000000000000600082015250565b6000611f44601683611efd565b9150611f4f82611f0e565b602082019050919050565b60006020820190508181036000830152611f7381611f37565b9050919050565b6000606082019050611f8f6000830186611921565b611f9c6020830185611921565b611fa96040830184611921565b949350505050565b7f4e487b7100000000000000000000000000000000000000000000000000000000600052603260045260246000fd5b7f4e6f20706c617965727320696e2074686520726166666c652e00000000000000600082015250565b6000612016601983611efd565b915061202182611fe0565b602082019050919050565b6000602082019050818103600083015261204581612009565b9050919050565b7f4e487b7100000000000000000000000000000000000000000000000000000000600052601260045260246000fd5b600061208682611681565b915061209183611681565b9250826120a1576120a061204c565b5b828206905092915050565b600081905092915050565b50565b60006120c76000836120ac565b91506120d2826120b7565b600082019050919050565b60006120e8826120ba565b9150819050919050565b600081519050919050565b6000612108826120f2565b6121128185611efd565b9350612122818560208601611b0c565b61212b81611950565b840191505092915050565b6000602082019050818103600083015261215081846120fd565b905092915050565b61216181611ad5565b82525050565b60208201600082015161217d6000850182612158565b50505050565b60006020820190506121986000830184612167565b92915050565b600060408201905081810360008301526121b881856120fd565b90506121c7602083018461168b565b9392505050565b7f4f6e6c792063616c6c61626c65206279206f776e657200000000000000000000600082015250565b6000612204601683611efd565b915061220f826121ce565b602082019050919050565b60006020820190508181036000830152612233816121f7565b9050919050565b7f43616e6e6f74207472616e7366657220746f2073656c66000000000000000000600082015250565b6000612270601783611efd565b915061227b8261223a565b602082019050919050565b6000602082019050818103600083015261229f81612263565b9050919050565b7f4e487b7100000000000000000000000000000000000000000000000000000000600052605160045260246000fdfe656e74657265642066756c66696c6c52616e646f6d576f7264732066756e6374696f6e2e2e2ea2646970667358221220c99d066665e68574320e93b227cb3617ad8bcc246f45a12130974b27f5daa75364736f6c63430008130033","opcodes":"PUSH2 0x140 PUSH1 0x40 MSTORE CALLVALUE DUP1 ISZERO PUSH3 0x12 JUMPI PUSH1 0x0 DUP1 REVERT JUMPDEST POP PUSH1 0x40 MLOAD PUSH3 0x2A2F CODESIZE SUB DUP1 PUSH3 0x2A2F DUP4 CODECOPY DUP2 DUP2 ADD PUSH1 0x40 MSTORE DUP2 ADD SWAP1 PUSH3 0x38 SWAP2 SWAP1 PUSH3 0x4DC JUMP JUMPDEST DUP6 CALLER DUP1 PUSH1 0x0 DUP1 PUSH20 0xFFFFFFFFFFFFFFFFFFFFFFFFFFFFFFFFFFFFFFFF AND DUP3 PUSH20 0xFFFFFFFFFFFFFFFFFFFFFFFFFFFFFFFFFFFFFFFF AND SUB PUSH3 0xAE JUMPI PUSH1 0x40 MLOAD PUSH32 0x8C379A000000000000000000000000000000000000000000000000000000000 DUP2 MSTORE PUSH1 0x4 ADD PUSH3 0xA5 SWAP1 PUSH3 0x5D9 JUMP JUMPDEST PUSH1 0x40 MLOAD DUP1 SWAP2 SUB SWAP1 REVERT JUMPDEST DUP2 PUSH1 0x0 DUP1 PUSH2 0x100 EXP DUP2 SLOAD DUP2 PUSH20 0xFFFFFFFFFFFFFFFFFFFFFFFFFFFFFFFFFFFFFFFF MUL NOT AND SWAP1 DUP4 PUSH20 0xFFFFFFFFFFFFFFFFFFFFFFFFFFFFFFFFFFFFFFFF AND MUL OR SWAP1 SSTORE POP PUSH1 0x0 PUSH20 0xFFFFFFFFFFFFFFFFFFFFFFFFFFFFFFFFFFFFFFFF AND DUP2 PUSH20 0xFFFFFFFFFFFFFFFFFFFFFFFFFFFFFFFFFFFFFFFF AND EQ PUSH3 0x135 JUMPI PUSH3 0x134 DUP2 PUSH3 0x28C PUSH1 0x20 SHL PUSH1 0x20 SHR JUMP JUMPDEST JUMPDEST POP POP POP PUSH1 0x0 PUSH20 0xFFFFFFFFFFFFFFFFFFFFFFFFFFFFFFFFFFFFFFFF AND DUP2 PUSH20 0xFFFFFFFFFFFFFFFFFFFFFFFFFFFFFFFFFFFFFFFF AND SUB PUSH3 0x19F JUMPI PUSH1 0x40 MLOAD PUSH32 0xD92E233D00000000000000000000000000000000000000000000000000000000 DUP2 MSTORE PUSH1 0x4 ADD PUSH1 0x40 MLOAD DUP1 SWAP2 SUB SWAP1 REVERT JUMPDEST DUP1 PUSH1 0x2 PUSH1 0x0 PUSH2 0x100 EXP DUP2 SLOAD DUP2 PUSH20 0xFFFFFFFFFFFFFFFFFFFFFFFFFFFFFFFFFFFFFFFF MUL NOT AND SWAP1 DUP4 PUSH20 0xFFFFFFFFFFFFFFFFFFFFFFFFFFFFFFFFFFFFFFFF AND MUL OR SWAP1 SSTORE POP POP DUP5 PUSH2 0x100 DUP2 DUP2 MSTORE POP POP DUP6 PUSH20 0xFFFFFFFFFFFFFFFFFFFFFFFFFFFFFFFFFFFFFFFF AND PUSH1 0x80 DUP2 PUSH20 0xFFFFFFFFFFFFFFFFFFFFFFFFFFFFFFFFFFFFFFFF AND DUP2 MSTORE POP POP DUP4 PUSH1 0xA0 DUP2 DUP2 MSTORE POP POP DUP3 PUSH1 0xC0 DUP2 DUP2 MSTORE POP POP DUP2 PUSH4 0xFFFFFFFF AND PUSH1 0xE0 DUP2 PUSH4 0xFFFFFFFF AND DUP2 MSTORE POP POP PUSH1 0x0 PUSH1 0x4 PUSH1 0x14 PUSH2 0x100 EXP DUP2 SLOAD DUP2 PUSH1 0xFF MUL NOT AND SWAP1 DUP4 PUSH1 0x1 DUP2 GT ISZERO PUSH3 0x26B JUMPI PUSH3 0x26A PUSH3 0x5FB JUMP JUMPDEST JUMPDEST MUL OR SWAP1 SSTORE POP TIMESTAMP PUSH1 0x5 DUP2 SWAP1 SSTORE POP DUP1 PUSH2 0x120 DUP2 DUP2 MSTORE POP POP POP POP POP POP POP POP PUSH3 0x69C JUMP JUMPDEST CALLER PUSH20 0xFFFFFFFFFFFFFFFFFFFFFFFFFFFFFFFFFFFFFFFF AND DUP2 PUSH20 0xFFFFFFFFFFFFFFFFFFFFFFFFFFFFFFFFFFFFFFFF AND SUB PUSH3 0x2FD JUMPI PUSH1 0x40 MLOAD PUSH32 0x8C379A000000000000000000000000000000000000000000000000000000000 DUP2 MSTORE PUSH1 0x4 ADD PUSH3 0x2F4 SWAP1 PUSH3 0x67A JUMP JUMPDEST PUSH1 0x40 MLOAD DUP1 SWAP2 SUB SWAP1 REVERT JUMPDEST DUP1 PUSH1 0x1 PUSH1 0x0 PUSH2 0x100 EXP DUP2 SLOAD DUP2 PUSH20 0xFFFFFFFFFFFFFFFFFFFFFFFFFFFFFFFFFFFFFFFF MUL NOT AND SWAP1 DUP4 PUSH20 0xFFFFFFFFFFFFFFFFFFFFFFFFFFFFFFFFFFFFFFFF AND MUL OR SWAP1 SSTORE POP DUP1 PUSH20 0xFFFFFFFFFFFFFFFFFFFFFFFFFFFFFFFFFFFFFFFF AND PUSH1 0x0 DUP1 SLOAD SWAP1 PUSH2 0x100 EXP SWAP1 DIV PUSH20 0xFFFFFFFFFFFFFFFFFFFFFFFFFFFFFFFFFFFFFFFF AND PUSH20 0xFFFFFFFFFFFFFFFFFFFFFFFFFFFFFFFFFFFFFFFF AND PUSH32 0xED8889F560326EB138920D842192F0EB3DD22B4F139C87A2C57538E05BAE1278 PUSH1 0x40 MLOAD PUSH1 0x40 MLOAD DUP1 SWAP2 SUB SWAP1 LOG3 POP JUMP JUMPDEST PUSH1 0x0 DUP1 REVERT JUMPDEST PUSH1 0x0 PUSH20 0xFFFFFFFFFFFFFFFFFFFFFFFFFFFFFFFFFFFFFFFF DUP3 AND SWAP1 POP SWAP2 SWAP1 POP JUMP JUMPDEST PUSH1 0x0 PUSH3 0x3ED DUP3 PUSH3 0x3C0 JUMP JUMPDEST SWAP1 POP SWAP2 SWAP1 POP JUMP JUMPDEST PUSH3 0x3FF DUP2 PUSH3 0x3E0 JUMP JUMPDEST DUP2 EQ PUSH3 0x40B JUMPI PUSH1 0x0 DUP1 REVERT JUMPDEST POP JUMP JUMPDEST PUSH1 0x0 DUP2 MLOAD SWAP1 POP PUSH3 0x41F DUP2 PUSH3 0x3F4 JUMP JUMPDEST SWAP3 SWAP2 POP POP JUMP JUMPDEST PUSH1 0x0 DUP2 SWAP1 POP SWAP2 SWAP1 POP JUMP JUMPDEST PUSH3 0x43A DUP2 PUSH3 0x425 JUMP JUMPDEST DUP2 EQ PUSH3 0x446 JUMPI PUSH1 0x0 DUP1 REVERT JUMPDEST POP JUMP JUMPDEST PUSH1 0x0 DUP2 MLOAD SWAP1 POP PUSH3 0x45A DUP2 PUSH3 0x42F JUMP JUMPDEST SWAP3 SWAP2 POP POP JUMP JUMPDEST PUSH1 0x0 DUP2 SWAP1 POP SWAP2 SWAP1 POP JUMP JUMPDEST PUSH3 0x475 DUP2 PUSH3 0x460 JUMP JUMPDEST DUP2 EQ PUSH3 0x481 JUMPI PUSH1 0x0 DUP1 REVERT JUMPDEST POP JUMP JUMPDEST PUSH1 0x0 DUP2 MLOAD SWAP1 POP PUSH3 0x495 DUP2 PUSH3 0x46A JUMP JUMPDEST SWAP3 SWAP2 POP POP JUMP JUMPDEST PUSH1 0x0 PUSH4 0xFFFFFFFF DUP3 AND SWAP1 POP SWAP2 SWAP1 POP JUMP JUMPDEST PUSH3 0x4B6 DUP2 PUSH3 0x49B JUMP JUMPDEST DUP2 EQ PUSH3 0x4C2 JUMPI PUSH1 0x0 DUP1 REVERT JUMPDEST POP JUMP JUMPDEST PUSH1 0x0 DUP2 MLOAD SWAP1 POP PUSH3 0x4D6 DUP2 PUSH3 0x4AB JUMP JUMPDEST SWAP3 SWAP2 POP POP JUMP JUMPDEST PUSH1 0x0 DUP1 PUSH1 0x0 DUP1 PUSH1 0x0 DUP1 PUSH1 0xC0 DUP8 DUP10 SUB SLT ISZERO PUSH3 0x4FC JUMPI PUSH3 0x4FB PUSH3 0x3BB JUMP JUMPDEST JUMPDEST PUSH1 0x0 PUSH3 0x50C DUP10 DUP3 DUP11 ADD PUSH3 0x40E JUMP JUMPDEST SWAP7 POP POP PUSH1 0x20 PUSH3 0x51F DUP10 DUP3 DUP11 ADD PUSH3 0x449 JUMP JUMPDEST SWAP6 POP POP PUSH1 0x40 PUSH3 0x532 DUP10 DUP3 DUP11 ADD PUSH3 0x484 JUMP JUMPDEST SWAP5 POP POP PUSH1 0x60 PUSH3 0x545 DUP10 DUP3 DUP11 ADD PUSH3 0x449 JUMP JUMPDEST SWAP4 POP POP PUSH1 0x80 PUSH3 0x558 DUP10 DUP3 DUP11 ADD PUSH3 0x4C5 JUMP JUMPDEST SWAP3 POP POP PUSH1 0xA0 PUSH3 0x56B DUP10 DUP3 DUP11 ADD PUSH3 0x449 JUMP JUMPDEST SWAP2 POP POP SWAP3 SWAP6 POP SWAP3 SWAP6 POP SWAP3 SWAP6 JUMP JUMPDEST PUSH1 0x0 DUP3 DUP3 MSTORE PUSH1 0x20 DUP3 ADD SWAP1 POP SWAP3 SWAP2 POP POP JUMP JUMPDEST PUSH32 0x43616E6E6F7420736574206F776E657220746F207A65726F0000000000000000 PUSH1 0x0 DUP3 ADD MSTORE POP JUMP JUMPDEST PUSH1 0x0 PUSH3 0x5C1 PUSH1 0x18 DUP4 PUSH3 0x578 JUMP JUMPDEST SWAP2 POP PUSH3 0x5CE DUP3 PUSH3 0x589 JUMP JUMPDEST PUSH1 0x20 DUP3 ADD SWAP1 POP SWAP2 SWAP1 POP JUMP JUMPDEST PUSH1 0x0 PUSH1 0x20 DUP3 ADD SWAP1 POP DUP2 DUP2 SUB PUSH1 0x0 DUP4 ADD MSTORE PUSH3 0x5F4 DUP2 PUSH3 0x5B2 JUMP JUMPDEST SWAP1 POP SWAP2 SWAP1 POP JUMP JUMPDEST PUSH32 0x4E487B7100000000000000000000000000000000000000000000000000000000 PUSH1 0x0 MSTORE PUSH1 0x21 PUSH1 0x4 MSTORE PUSH1 0x24 PUSH1 0x0 REVERT JUMPDEST PUSH32 0x43616E6E6F74207472616E7366657220746F2073656C66000000000000000000 PUSH1 0x0 DUP3 ADD MSTORE POP JUMP JUMPDEST PUSH1 0x0 PUSH3 0x662 PUSH1 0x17 DUP4 PUSH3 0x578 JUMP JUMPDEST SWAP2 POP PUSH3 0x66F DUP3 PUSH3 0x62A JUMP JUMPDEST PUSH1 0x20 DUP3 ADD SWAP1 POP SWAP2 SWAP1 POP JUMP JUMPDEST PUSH1 0x0 PUSH1 0x20 DUP3 ADD SWAP1 POP DUP2 DUP2 SUB PUSH1 0x0 DUP4 ADD MSTORE PUSH3 0x695 DUP2 PUSH3 0x653 JUMP JUMPDEST SWAP1 POP SWAP2 SWAP1 POP JUMP JUMPDEST PUSH1 0x80 MLOAD PUSH1 0xA0 MLOAD PUSH1 0xC0 MLOAD PUSH1 0xE0 MLOAD PUSH2 0x100 MLOAD PUSH2 0x120 MLOAD PUSH2 0x2331 PUSH3 0x6FE PUSH1 0x0 CODECOPY PUSH1 0x0 DUP2 DUP2 PUSH2 0xA35 ADD MSTORE DUP2 DUP2 PUSH2 0xA5D ADD MSTORE PUSH2 0xEA5 ADD MSTORE PUSH1 0x0 DUP2 DUP2 PUSH2 0x400 ADD MSTORE PUSH2 0x570 ADD MSTORE PUSH1 0x0 PUSH2 0x810 ADD MSTORE PUSH1 0x0 PUSH2 0x7DF ADD MSTORE PUSH1 0x0 PUSH2 0x7B9 ADD MSTORE PUSH1 0x0 POP POP PUSH2 0x2331 PUSH1 0x0 RETURN INVALID PUSH1 0x80 PUSH1 0x40 MSTORE PUSH1 0x4 CALLDATASIZE LT PUSH2 0x109 JUMPI PUSH1 0x0 CALLDATALOAD PUSH1 0xE0 SHR DUP1 PUSH4 0x79BA5097 GT PUSH2 0x95 JUMPI DUP1 PUSH4 0x9ECCACF6 GT PUSH2 0x64 JUMPI DUP1 PUSH4 0x9ECCACF6 EQ PUSH2 0x315 JUMPI DUP1 PUSH4 0xC361CE83 EQ PUSH2 0x340 JUMPI DUP1 PUSH4 0xD4980C41 EQ PUSH2 0x36B JUMPI DUP1 PUSH4 0xE55AE4E8 EQ PUSH2 0x396 JUMPI DUP1 PUSH4 0xF2FDE38B EQ PUSH2 0x3D3 JUMPI PUSH2 0x109 JUMP JUMPDEST DUP1 PUSH4 0x79BA5097 EQ PUSH2 0x27F JUMPI DUP1 PUSH4 0x8DA5CB5B EQ PUSH2 0x296 JUMPI DUP1 PUSH4 0x8EA98117 EQ PUSH2 0x2C1 JUMPI DUP1 PUSH4 0x91AD27B4 EQ PUSH2 0x2EA JUMPI PUSH2 0x109 JUMP JUMPDEST DUP1 PUSH4 0x320229EB GT PUSH2 0xDC JUMPI DUP1 PUSH4 0x320229EB EQ PUSH2 0x197 JUMPI DUP1 PUSH4 0x4585E33B EQ PUSH2 0x1C2 JUMPI DUP1 PUSH4 0x473F1DDC EQ PUSH2 0x1EB JUMPI DUP1 PUSH4 0x53A2C19A EQ PUSH2 0x216 JUMPI DUP1 PUSH4 0x6E04FF0D EQ PUSH2 0x241 JUMPI PUSH2 0x109 JUMP JUMPDEST DUP1 PUSH4 0x9BC33A7 EQ PUSH2 0x10E JUMPI DUP1 PUSH4 0x115CBAF5 EQ PUSH2 0x139 JUMPI DUP1 PUSH4 0x1FE543E3 EQ PUSH2 0x164 JUMPI DUP1 PUSH4 0x2CFCC539 EQ PUSH2 0x18D JUMPI JUMPDEST PUSH1 0x0 DUP1 REVERT JUMPDEST CALLVALUE DUP1 ISZERO PUSH2 0x11A JUMPI PUSH1 0x0 DUP1 REVERT JUMPDEST POP PUSH2 0x123 PUSH2 0x3FC JUMP JUMPDEST PUSH1 0x40 MLOAD PUSH2 0x130 SWAP2 SWAP1 PUSH2 0x169A JUMP JUMPDEST PUSH1 0x40 MLOAD DUP1 SWAP2 SUB SWAP1 RETURN JUMPDEST CALLVALUE DUP1 ISZERO PUSH2 0x145 JUMPI PUSH1 0x0 DUP1 REVERT JUMPDEST POP PUSH2 0x14E PUSH2 0x424 JUMP JUMPDEST PUSH1 0x40 MLOAD PUSH2 0x15B SWAP2 SWAP1 PUSH2 0x172C JUMP JUMPDEST PUSH1 0x40 MLOAD DUP1 SWAP2 SUB SWAP1 RETURN JUMPDEST CALLVALUE DUP1 ISZERO PUSH2 0x170 JUMPI PUSH1 0x0 DUP1 REVERT JUMPDEST POP PUSH2 0x18B PUSH1 0x4 DUP1 CALLDATASIZE SUB DUP2 ADD SWAP1 PUSH2 0x186 SWAP2 SWAP1 PUSH2 0x17EC JUMP JUMPDEST PUSH2 0x43B JUMP JUMPDEST STOP JUMPDEST PUSH2 0x195 PUSH2 0x501 JUMP JUMPDEST STOP JUMPDEST CALLVALUE DUP1 ISZERO PUSH2 0x1A3 JUMPI PUSH1 0x0 DUP1 REVERT JUMPDEST POP PUSH2 0x1AC PUSH2 0x670 JUMP JUMPDEST PUSH1 0x40 MLOAD PUSH2 0x1B9 SWAP2 SWAP1 PUSH2 0x169A JUMP JUMPDEST PUSH1 0x40 MLOAD DUP1 SWAP2 SUB SWAP1 RETURN JUMPDEST CALLVALUE DUP1 ISZERO PUSH2 0x1CE JUMPI PUSH1 0x0 DUP1 REVERT JUMPDEST POP PUSH2 0x1E9 PUSH1 0x4 DUP1 CALLDATASIZE SUB DUP2 ADD SWAP1 PUSH2 0x1E4 SWAP2 SWAP1 PUSH2 0x18A2 JUMP JUMPDEST PUSH2 0x67A JUMP JUMPDEST STOP JUMPDEST CALLVALUE DUP1 ISZERO PUSH2 0x1F7 JUMPI PUSH1 0x0 DUP1 REVERT JUMPDEST POP PUSH2 0x200 PUSH2 0x937 JUMP JUMPDEST PUSH1 0x40 MLOAD PUSH2 0x20D SWAP2 SWAP1 PUSH2 0x1930 JUMP JUMPDEST PUSH1 0x40 MLOAD DUP1 SWAP2 SUB SWAP1 RETURN JUMPDEST CALLVALUE DUP1 ISZERO PUSH2 0x222 JUMPI PUSH1 0x0 DUP1 REVERT JUMPDEST POP PUSH2 0x22B PUSH2 0x961 JUMP JUMPDEST PUSH1 0x40 MLOAD PUSH2 0x238 SWAP2 SWAP1 PUSH2 0x169A JUMP JUMPDEST PUSH1 0x40 MLOAD DUP1 SWAP2 SUB SWAP1 RETURN JUMPDEST CALLVALUE DUP1 ISZERO PUSH2 0x24D JUMPI PUSH1 0x0 DUP1 REVERT JUMPDEST POP PUSH2 0x268 PUSH1 0x4 DUP1 CALLDATASIZE SUB DUP2 ADD SWAP1 PUSH2 0x263 SWAP2 SWAP1 PUSH2 0x1A8C JUMP JUMPDEST PUSH2 0x970 JUMP JUMPDEST PUSH1 0x40 MLOAD PUSH2 0x276 SWAP3 SWAP2 SWAP1 PUSH2 0x1B6F JUMP JUMPDEST PUSH1 0x40 MLOAD DUP1 SWAP2 SUB SWAP1 RETURN JUMPDEST CALLVALUE DUP1 ISZERO PUSH2 0x28B JUMPI PUSH1 0x0 DUP1 REVERT JUMPDEST POP PUSH2 0x294 PUSH2 0xB02 JUMP JUMPDEST STOP JUMPDEST CALLVALUE DUP1 ISZERO PUSH2 0x2A2 JUMPI PUSH1 0x0 DUP1 REVERT JUMPDEST POP PUSH2 0x2AB PUSH2 0xC97 JUMP JUMPDEST PUSH1 0x40 MLOAD PUSH2 0x2B8 SWAP2 SWAP1 PUSH2 0x1930 JUMP JUMPDEST PUSH1 0x40 MLOAD DUP1 SWAP2 SUB SWAP1 RETURN JUMPDEST CALLVALUE DUP1 ISZERO PUSH2 0x2CD JUMPI PUSH1 0x0 DUP1 REVERT JUMPDEST POP PUSH2 0x2E8 PUSH1 0x4 DUP1 CALLDATASIZE SUB DUP2 ADD SWAP1 PUSH2 0x2E3 SWAP2 SWAP1 PUSH2 0x1BCB JUMP JUMPDEST PUSH2 0xCC0 JUMP JUMPDEST STOP JUMPDEST CALLVALUE DUP1 ISZERO PUSH2 0x2F6 JUMPI PUSH1 0x0 DUP1 REVERT JUMPDEST POP PUSH2 0x2FF PUSH2 0xEA1 JUMP JUMPDEST PUSH1 0x40 MLOAD PUSH2 0x30C SWAP2 SWAP1 PUSH2 0x169A JUMP JUMPDEST PUSH1 0x40 MLOAD DUP1 SWAP2 SUB SWAP1 RETURN JUMPDEST CALLVALUE DUP1 ISZERO PUSH2 0x321 JUMPI PUSH1 0x0 DUP1 REVERT JUMPDEST POP PUSH2 0x32A PUSH2 0xEC9 JUMP JUMPDEST PUSH1 0x40 MLOAD PUSH2 0x337 SWAP2 SWAP1 PUSH2 0x1C57 JUMP JUMPDEST PUSH1 0x40 MLOAD DUP1 SWAP2 SUB SWAP1 RETURN JUMPDEST CALLVALUE DUP1 ISZERO PUSH2 0x34C JUMPI PUSH1 0x0 DUP1 REVERT JUMPDEST POP PUSH2 0x355 PUSH2 0xEEF JUMP JUMPDEST PUSH1 0x40 MLOAD PUSH2 0x362 SWAP2 SWAP1 PUSH2 0x169A JUMP JUMPDEST PUSH1 0x40 MLOAD DUP1 SWAP2 SUB SWAP1 RETURN JUMPDEST CALLVALUE DUP1 ISZERO PUSH2 0x377 JUMPI PUSH1 0x0 DUP1 REVERT JUMPDEST POP PUSH2 0x380 PUSH2 0xEFC JUMP JUMPDEST PUSH1 0x40 MLOAD PUSH2 0x38D SWAP2 SWAP1 PUSH2 0x169A JUMP JUMPDEST PUSH1 0x40 MLOAD DUP1 SWAP2 SUB SWAP1 RETURN JUMPDEST CALLVALUE DUP1 ISZERO PUSH2 0x3A2 JUMPI PUSH1 0x0 DUP1 REVERT JUMPDEST POP PUSH2 0x3BD PUSH1 0x4 DUP1 CALLDATASIZE SUB DUP2 ADD SWAP1 PUSH2 0x3B8 SWAP2 SWAP1 PUSH2 0x1C72 JUMP JUMPDEST PUSH2 0xF09 JUMP JUMPDEST PUSH1 0x40 MLOAD PUSH2 0x3CA SWAP2 SWAP1 PUSH2 0x1930 JUMP JUMPDEST PUSH1 0x40 MLOAD DUP1 SWAP2 SUB SWAP1 RETURN JUMPDEST CALLVALUE DUP1 ISZERO PUSH2 0x3DF JUMPI PUSH1 0x0 DUP1 REVERT JUMPDEST POP PUSH2 0x3FA PUSH1 0x4 DUP1 CALLDATASIZE SUB DUP2 ADD SWAP1 PUSH2 0x3F5 SWAP2 SWAP1 PUSH2 0x1BCB JUMP JUMPDEST PUSH2 0xF51 JUMP JUMPDEST STOP JUMPDEST PUSH1 0x0 PUSH32 0x0 SWAP1 POP SWAP1 JUMP JUMPDEST PUSH1 0x0 PUSH1 0x4 PUSH1 0x14 SWAP1 SLOAD SWAP1 PUSH2 0x100 EXP SWAP1 DIV PUSH1 0xFF AND SWAP1 POP SWAP1 JUMP JUMPDEST PUSH1 0x2 PUSH1 0x0 SWAP1 SLOAD SWAP1 PUSH2 0x100 EXP SWAP1 DIV PUSH20 0xFFFFFFFFFFFFFFFFFFFFFFFFFFFFFFFFFFFFFFFF AND PUSH20 0xFFFFFFFFFFFFFFFFFFFFFFFFFFFFFFFFFFFFFFFF AND CALLER PUSH20 0xFFFFFFFFFFFFFFFFFFFFFFFFFFFFFFFFFFFFFFFF AND EQ PUSH2 0x4F1 JUMPI CALLER PUSH1 0x2 PUSH1 0x0 SWAP1 SLOAD SWAP1 PUSH2 0x100 EXP SWAP1 DIV PUSH20 0xFFFFFFFFFFFFFFFFFFFFFFFFFFFFFFFFFFFFFFFF AND PUSH1 0x40 MLOAD PUSH32 0x1CF993F400000000000000000000000000000000000000000000000000000000 DUP2 MSTORE PUSH1 0x4 ADD PUSH2 0x4E8 SWAP3 SWAP2 SWAP1 PUSH2 0x1C9F JUMP JUMPDEST PUSH1 0x40 MLOAD DUP1 SWAP2 SUB SWAP1 REVERT JUMPDEST PUSH2 0x4FC DUP4 DUP4 DUP4 PUSH2 0xF65 JUMP JUMPDEST POP POP POP JUMP JUMPDEST PUSH1 0x0 PUSH1 0x1 DUP2 GT ISZERO PUSH2 0x515 JUMPI PUSH2 0x514 PUSH2 0x16B5 JUMP JUMPDEST JUMPDEST PUSH1 0x4 PUSH1 0x14 SWAP1 SLOAD SWAP1 PUSH2 0x100 EXP SWAP1 DIV PUSH1 0xFF AND PUSH1 0x1 DUP2 GT ISZERO PUSH2 0x537 JUMPI PUSH2 0x536 PUSH2 0x16B5 JUMP JUMPDEST JUMPDEST EQ PUSH2 0x56E JUMPI PUSH1 0x40 MLOAD PUSH32 0x1425571C00000000000000000000000000000000000000000000000000000000 DUP2 MSTORE PUSH1 0x4 ADD PUSH1 0x40 MLOAD DUP1 SWAP2 SUB SWAP1 REVERT JUMPDEST PUSH32 0x0 CALLVALUE LT ISZERO PUSH2 0x5C8 JUMPI PUSH1 0x40 MLOAD PUSH32 0xBD4E069500000000000000000000000000000000000000000000000000000000 DUP2 MSTORE PUSH1 0x4 ADD PUSH1 0x40 MLOAD DUP1 SWAP2 SUB SWAP1 REVERT JUMPDEST PUSH1 0x3 CALLER SWAP1 DUP1 PUSH1 0x1 DUP2 SLOAD ADD DUP1 DUP3 SSTORE DUP1 SWAP2 POP POP PUSH1 0x1 SWAP1 SUB SWAP1 PUSH1 0x0 MSTORE PUSH1 0x20 PUSH1 0x0 KECCAK256 ADD PUSH1 0x0 SWAP1 SWAP2 SWAP1 SWAP2 SWAP1 SWAP2 PUSH2 0x100 EXP DUP2 SLOAD DUP2 PUSH20 0xFFFFFFFFFFFFFFFFFFFFFFFFFFFFFFFFFFFFFFFF MUL NOT AND SWAP1 DUP4 PUSH20 0xFFFFFFFFFFFFFFFFFFFFFFFFFFFFFFFFFFFFFFFF AND MUL OR SWAP1 SSTORE POP CALLER PUSH20 0xFFFFFFFFFFFFFFFFFFFFFFFFFFFFFFFFFFFFFFFF AND PUSH32 0x634F3211E3A4E43FEE5A21AD9F87CA153B300FC78B1C557A2057DBE9C63BCB47 PUSH1 0x40 MLOAD PUSH1 0x40 MLOAD DUP1 SWAP2 SUB SWAP1 LOG2 JUMP JUMPDEST PUSH1 0x0 PUSH1 0x5 SLOAD SWAP1 POP SWAP1 JUMP JUMPDEST PUSH1 0x0 PUSH2 0x694 PUSH1 0x40 MLOAD DUP1 PUSH1 0x20 ADD PUSH1 0x40 MSTORE DUP1 PUSH1 0x0 DUP2 MSTORE POP PUSH2 0x970 JUMP JUMPDEST POP SWAP1 POP DUP1 PUSH2 0x703 JUMPI SELFBALANCE PUSH1 0x3 DUP1 SLOAD SWAP1 POP PUSH1 0x4 PUSH1 0x14 SWAP1 SLOAD SWAP1 PUSH2 0x100 EXP SWAP1 DIV PUSH1 0xFF AND PUSH1 0x1 DUP2 GT ISZERO PUSH2 0x6C5 JUMPI PUSH2 0x6C4 PUSH2 0x16B5 JUMP JUMPDEST JUMPDEST PUSH1 0x40 MLOAD PUSH32 0x3A8D608600000000000000000000000000000000000000000000000000000000 DUP2 MSTORE PUSH1 0x4 ADD PUSH2 0x6FA SWAP4 SWAP3 SWAP2 SWAP1 PUSH2 0x1CC8 JUMP JUMPDEST PUSH1 0x40 MLOAD DUP1 SWAP2 SUB SWAP1 REVERT JUMPDEST PUSH1 0x1 PUSH1 0x4 PUSH1 0x14 PUSH2 0x100 EXP DUP2 SLOAD DUP2 PUSH1 0xFF MUL NOT AND SWAP1 DUP4 PUSH1 0x1 DUP2 GT ISZERO PUSH2 0x729 JUMPI PUSH2 0x728 PUSH2 0x16B5 JUMP JUMPDEST JUMPDEST MUL OR SWAP1 SSTORE POP PUSH2 0x76C PUSH1 0x40 MLOAD DUP1 PUSH1 0x40 ADD PUSH1 0x40 MSTORE DUP1 PUSH1 0x1A DUP2 MSTORE PUSH1 0x20 ADD PUSH32 0x52657175657374696E672072616E646F6D20776F7264732E2E2E000000000000 DUP2 MSTORE POP PUSH2 0x1201 JUMP JUMPDEST PUSH1 0x0 PUSH1 0x2 PUSH1 0x0 SWAP1 SLOAD SWAP1 PUSH2 0x100 EXP SWAP1 DIV PUSH20 0xFFFFFFFFFFFFFFFFFFFFFFFFFFFFFFFFFFFFFFFF AND PUSH20 0xFFFFFFFFFFFFFFFFFFFFFFFFFFFFFFFFFFFFFFFF AND PUSH4 0x9B1C385E PUSH1 0x40 MLOAD DUP1 PUSH1 0xC0 ADD PUSH1 0x40 MSTORE DUP1 PUSH32 0x0 DUP2 MSTORE PUSH1 0x20 ADD PUSH32 0x0 DUP2 MSTORE PUSH1 0x20 ADD PUSH1 0x3 PUSH2 0xFFFF AND DUP2 MSTORE PUSH1 0x20 ADD PUSH32 0x0 PUSH4 0xFFFFFFFF AND DUP2 MSTORE PUSH1 0x20 ADD PUSH1 0x1 PUSH4 0xFFFFFFFF AND DUP2 MSTORE PUSH1 0x20 ADD PUSH2 0x861 PUSH1 0x40 MLOAD DUP1 PUSH1 0x20 ADD PUSH1 0x40 MSTORE DUP1 PUSH1 0x0 ISZERO ISZERO DUP2 MSTORE POP PUSH2 0x129A JUMP JUMPDEST DUP2 MSTORE POP PUSH1 0x40 MLOAD DUP3 PUSH4 0xFFFFFFFF AND PUSH1 0xE0 SHL DUP2 MSTORE PUSH1 0x4 ADD PUSH2 0x880 SWAP2 SWAP1 PUSH2 0x1E36 JUMP JUMPDEST PUSH1 0x20 PUSH1 0x40 MLOAD DUP1 DUP4 SUB DUP2 PUSH1 0x0 DUP8 GAS CALL ISZERO DUP1 ISZERO PUSH2 0x89F JUMPI RETURNDATASIZE PUSH1 0x0 DUP1 RETURNDATACOPY RETURNDATASIZE PUSH1 0x0 REVERT JUMPDEST POP POP POP POP PUSH1 0x40 MLOAD RETURNDATASIZE PUSH1 0x1F NOT PUSH1 0x1F DUP3 ADD AND DUP3 ADD DUP1 PUSH1 0x40 MSTORE POP DUP2 ADD SWAP1 PUSH2 0x8C3 SWAP2 SWAP1 PUSH2 0x1E6D JUMP JUMPDEST SWAP1 POP PUSH2 0x904 PUSH1 0x40 MLOAD DUP1 PUSH1 0x40 ADD PUSH1 0x40 MSTORE DUP1 PUSH1 0x1F DUP2 MSTORE PUSH1 0x20 ADD PUSH32 0x52616E646F6D20776F7264732072657175657374656420776974682049443A00 DUP2 MSTORE POP DUP3 PUSH2 0x1332 JUMP JUMPDEST DUP1 PUSH32 0x6700FEF9FD9C98D6E3060EECFB082EA7AD01C71A1FBFDC8EAAB73ABF937FF3B2 PUSH1 0x40 MLOAD PUSH1 0x40 MLOAD DUP1 SWAP2 SUB SWAP1 LOG2 POP POP POP POP JUMP JUMPDEST PUSH1 0x0 PUSH1 0x4 PUSH1 0x0 SWAP1 SLOAD SWAP1 PUSH2 0x100 EXP SWAP1 DIV PUSH20 0xFFFFFFFFFFFFFFFFFFFFFFFFFFFFFFFFFFFFFFFF AND SWAP1 POP SWAP1 JUMP JUMPDEST PUSH1 0x0 PUSH1 0x1 PUSH4 0xFFFFFFFF AND SWAP1 POP SWAP1 JUMP JUMPDEST PUSH1 0x0 PUSH1 0x60 PUSH1 0x0 DUP1 PUSH1 0x1 DUP2 GT ISZERO PUSH2 0x989 JUMPI PUSH2 0x988 PUSH2 0x16B5 JUMP JUMPDEST JUMPDEST PUSH1 0x4 PUSH1 0x14 SWAP1 SLOAD SWAP1 PUSH2 0x100 EXP SWAP1 DIV PUSH1 0xFF AND PUSH1 0x1 DUP2 GT ISZERO PUSH2 0x9AB JUMPI PUSH2 0x9AA PUSH2 0x16B5 JUMP JUMPDEST JUMPDEST EQ SWAP1 POP PUSH2 0x9FA PUSH1 0x40 MLOAD DUP1 PUSH1 0x40 ADD PUSH1 0x40 MSTORE DUP1 PUSH1 0x18 DUP2 MSTORE PUSH1 0x20 ADD PUSH32 0x54696D65205374616D7020446966666572656E6365203A200000000000000000 DUP2 MSTORE POP PUSH1 0x5 SLOAD TIMESTAMP PUSH2 0x9F5 SWAP2 SWAP1 PUSH2 0x1EC9 JUMP JUMPDEST PUSH2 0x1332 JUMP JUMPDEST PUSH2 0xA59 PUSH1 0x40 MLOAD DUP1 PUSH1 0x40 ADD PUSH1 0x40 MSTORE DUP1 PUSH1 0x8 DUP2 MSTORE PUSH1 0x20 ADD PUSH32 0x496E74657276616C000000000000000000000000000000000000000000000000 DUP2 MSTORE POP PUSH32 0x0 PUSH2 0x1332 JUMP JUMPDEST PUSH1 0x0 PUSH32 0x0 PUSH1 0x5 SLOAD TIMESTAMP PUSH2 0xA8A SWAP2 SWAP1 PUSH2 0x1EC9 JUMP JUMPDEST GT SWAP1 POP PUSH1 0x0 DUP1 PUSH1 0x3 DUP1 SLOAD SWAP1 POP GT SWAP1 POP PUSH1 0x0 DUP1 SELFBALANCE GT SWAP1 POP DUP4 DUP1 ISZERO PUSH2 0xAAA JUMPI POP DUP3 JUMPDEST DUP1 ISZERO PUSH2 0xAB3 JUMPI POP DUP2 JUMPDEST DUP1 ISZERO PUSH2 0xABC JUMPI POP DUP1 JUMPDEST SWAP6 POP DUP6 PUSH1 0x40 MLOAD DUP1 PUSH1 0x40 ADD PUSH1 0x40 MSTORE DUP1 PUSH1 0x2 DUP2 MSTORE PUSH1 0x20 ADD PUSH32 0x3078000000000000000000000000000000000000000000000000000000000000 DUP2 MSTORE POP SWAP6 POP SWAP6 POP POP POP POP POP SWAP2 POP SWAP2 JUMP JUMPDEST PUSH1 0x1 PUSH1 0x0 SWAP1 SLOAD SWAP1 PUSH2 0x100 EXP SWAP1 DIV PUSH20 0xFFFFFFFFFFFFFFFFFFFFFFFFFFFFFFFFFFFFFFFF AND PUSH20 0xFFFFFFFFFFFFFFFFFFFFFFFFFFFFFFFFFFFFFFFF AND CALLER PUSH20 0xFFFFFFFFFFFFFFFFFFFFFFFFFFFFFFFFFFFFFFFF AND EQ PUSH2 0xB92 JUMPI PUSH1 0x40 MLOAD PUSH32 0x8C379A000000000000000000000000000000000000000000000000000000000 DUP2 MSTORE PUSH1 0x4 ADD PUSH2 0xB89 SWAP1 PUSH2 0x1F5A JUMP JUMPDEST PUSH1 0x40 MLOAD DUP1 SWAP2 SUB SWAP1 REVERT JUMPDEST PUSH1 0x0 DUP1 PUSH1 0x0 SWAP1 SLOAD SWAP1 PUSH2 0x100 EXP SWAP1 DIV PUSH20 0xFFFFFFFFFFFFFFFFFFFFFFFFFFFFFFFFFFFFFFFF AND SWAP1 POP CALLER PUSH1 0x0 DUP1 PUSH2 0x100 EXP DUP2 SLOAD DUP2 PUSH20 0xFFFFFFFFFFFFFFFFFFFFFFFFFFFFFFFFFFFFFFFF MUL NOT AND SWAP1 DUP4 PUSH20 0xFFFFFFFFFFFFFFFFFFFFFFFFFFFFFFFFFFFFFFFF AND MUL OR SWAP1 SSTORE POP PUSH1 0x0 PUSH1 0x1 PUSH1 0x0 PUSH2 0x100 EXP DUP2 SLOAD DUP2 PUSH20 0xFFFFFFFFFFFFFFFFFFFFFFFFFFFFFFFFFFFFFFFF MUL NOT AND SWAP1 DUP4 PUSH20 0xFFFFFFFFFFFFFFFFFFFFFFFFFFFFFFFFFFFFFFFF AND MUL OR SWAP1 SSTORE POP CALLER PUSH20 0xFFFFFFFFFFFFFFFFFFFFFFFFFFFFFFFFFFFFFFFF AND DUP2 PUSH20 0xFFFFFFFFFFFFFFFFFFFFFFFFFFFFFFFFFFFFFFFF AND PUSH32 0x8BE0079C531659141344CD1FD0A4F28419497F9722A3DAAFE3B4186F6B6457E0 PUSH1 0x40 MLOAD PUSH1 0x40 MLOAD DUP1 SWAP2 SUB SWAP1 LOG3 POP JUMP JUMPDEST PUSH1 0x0 DUP1 PUSH1 0x0 SWAP1 SLOAD SWAP1 PUSH2 0x100 EXP SWAP1 DIV PUSH20 0xFFFFFFFFFFFFFFFFFFFFFFFFFFFFFFFFFFFFFFFF AND SWAP1 POP SWAP1 JUMP JUMPDEST PUSH2 0xCC8 PUSH2 0xC97 JUMP JUMPDEST PUSH20 0xFFFFFFFFFFFFFFFFFFFFFFFFFFFFFFFFFFFFFFFF AND CALLER PUSH20 0xFFFFFFFFFFFFFFFFFFFFFFFFFFFFFFFFFFFFFFFF AND EQ ISZERO DUP1 ISZERO PUSH2 0xD51 JUMPI POP PUSH1 0x2 PUSH1 0x0 SWAP1 SLOAD SWAP1 PUSH2 0x100 EXP SWAP1 DIV PUSH20 0xFFFFFFFFFFFFFFFFFFFFFFFFFFFFFFFFFFFFFFFF AND PUSH20 0xFFFFFFFFFFFFFFFFFFFFFFFFFFFFFFFFFFFFFFFF AND CALLER PUSH20 0xFFFFFFFFFFFFFFFFFFFFFFFFFFFFFFFFFFFFFFFF AND EQ ISZERO JUMPDEST ISZERO PUSH2 0xDC0 JUMPI CALLER PUSH2 0xD5F PUSH2 0xC97 JUMP JUMPDEST PUSH1 0x2 PUSH1 0x0 SWAP1 SLOAD SWAP1 PUSH2 0x100 EXP SWAP1 DIV PUSH20 0xFFFFFFFFFFFFFFFFFFFFFFFFFFFFFFFFFFFFFFFF AND PUSH1 0x40 MLOAD PUSH32 0x61DB9C100000000000000000000000000000000000000000000000000000000 DUP2 MSTORE PUSH1 0x4 ADD PUSH2 0xDB7 SWAP4 SWAP3 SWAP2 SWAP1 PUSH2 0x1F7A JUMP JUMPDEST PUSH1 0x40 MLOAD DUP1 SWAP2 SUB SWAP1 REVERT JUMPDEST PUSH1 0x0 PUSH20 0xFFFFFFFFFFFFFFFFFFFFFFFFFFFFFFFFFFFFFFFF AND DUP2 PUSH20 0xFFFFFFFFFFFFFFFFFFFFFFFFFFFFFFFFFFFFFFFF AND SUB PUSH2 0xE26 JUMPI PUSH1 0x40 MLOAD PUSH32 0xD92E233D00000000000000000000000000000000000000000000000000000000 DUP2 MSTORE PUSH1 0x4 ADD PUSH1 0x40 MLOAD DUP1 SWAP2 SUB SWAP1 REVERT JUMPDEST DUP1 PUSH1 0x2 PUSH1 0x0 PUSH2 0x100 EXP DUP2 SLOAD DUP2 PUSH20 0xFFFFFFFFFFFFFFFFFFFFFFFFFFFFFFFFFFFFFFFF MUL NOT AND SWAP1 DUP4 PUSH20 0xFFFFFFFFFFFFFFFFFFFFFFFFFFFFFFFFFFFFFFFF AND MUL OR SWAP1 SSTORE POP PUSH32 0xD1A6A14209A385A964D036E404CB5CFB71F4000CDB03C9366292430787261BE6 DUP2 PUSH1 0x40 MLOAD PUSH2 0xE96 SWAP2 SWAP1 PUSH2 0x1930 JUMP JUMPDEST PUSH1 0x40 MLOAD DUP1 SWAP2 SUB SWAP1 LOG1 POP JUMP JUMPDEST PUSH1 0x0 PUSH32 0x0 SWAP1 POP SWAP1 JUMP JUMPDEST PUSH1 0x2 PUSH1 0x0 SWAP1 SLOAD SWAP1 PUSH2 0x100 EXP SWAP1 DIV PUSH20 0xFFFFFFFFFFFFFFFFFFFFFFFFFFFFFFFFFFFFFFFF AND DUP2 JUMP JUMPDEST PUSH1 0x0 PUSH1 0x3 PUSH2 0xFFFF AND SWAP1 POP SWAP1 JUMP JUMPDEST PUSH1 0x0 PUSH1 0x3 DUP1 SLOAD SWAP1 POP SWAP1 POP SWAP1 JUMP JUMPDEST PUSH1 0x0 PUSH1 0x3 DUP3 DUP2 SLOAD DUP2 LT PUSH2 0xF1F JUMPI PUSH2 0xF1E PUSH2 0x1FB1 JUMP JUMPDEST JUMPDEST SWAP1 PUSH1 0x0 MSTORE PUSH1 0x20 PUSH1 0x0 KECCAK256 ADD PUSH1 0x0 SWAP1 SLOAD SWAP1 PUSH2 0x100 EXP SWAP1 DIV PUSH20 0xFFFFFFFFFFFFFFFFFFFFFFFFFFFFFFFFFFFFFFFF AND SWAP1 POP SWAP2 SWAP1 POP JUMP JUMPDEST PUSH2 0xF59 PUSH2 0x13CE JUMP JUMPDEST PUSH2 0xF62 DUP2 PUSH2 0x145E JUMP JUMPDEST POP JUMP JUMPDEST PUSH2 0xF86 PUSH1 0x40 MLOAD DUP1 PUSH1 0x60 ADD PUSH1 0x40 MSTORE DUP1 PUSH1 0x26 DUP2 MSTORE PUSH1 0x20 ADD PUSH2 0x22D6 PUSH1 0x26 SWAP2 CODECOPY PUSH2 0x1201 JUMP JUMPDEST PUSH1 0x0 PUSH1 0x3 DUP1 SLOAD SWAP1 POP GT PUSH2 0xFCE JUMPI PUSH1 0x40 MLOAD PUSH32 0x8C379A000000000000000000000000000000000000000000000000000000000 DUP2 MSTORE PUSH1 0x4 ADD PUSH2 0xFC5 SWAP1 PUSH2 0x202C JUMP JUMPDEST PUSH1 0x40 MLOAD DUP1 SWAP2 SUB SWAP1 REVERT JUMPDEST PUSH1 0x0 PUSH1 0x3 DUP1 SLOAD SWAP1 POP DUP4 DUP4 PUSH1 0x0 DUP2 DUP2 LT PUSH2 0xFEA JUMPI PUSH2 0xFE9 PUSH2 0x1FB1 JUMP JUMPDEST JUMPDEST SWAP1 POP PUSH1 0x20 MUL ADD CALLDATALOAD PUSH2 0xFFB SWAP2 SWAP1 PUSH2 0x207B JUMP JUMPDEST SWAP1 POP PUSH1 0x0 PUSH1 0x3 DUP3 DUP2 SLOAD DUP2 LT PUSH2 0x1013 JUMPI PUSH2 0x1012 PUSH2 0x1FB1 JUMP JUMPDEST JUMPDEST SWAP1 PUSH1 0x0 MSTORE PUSH1 0x20 PUSH1 0x0 KECCAK256 ADD PUSH1 0x0 SWAP1 SLOAD SWAP1 PUSH2 0x100 EXP SWAP1 DIV PUSH20 0xFFFFFFFFFFFFFFFFFFFFFFFFFFFFFFFFFFFFFFFF AND SWAP1 POP DUP1 PUSH1 0x4 PUSH1 0x0 PUSH2 0x100 EXP DUP2 SLOAD DUP2 PUSH20 0xFFFFFFFFFFFFFFFFFFFFFFFFFFFFFFFFFFFFFFFF MUL NOT AND SWAP1 DUP4 PUSH20 0xFFFFFFFFFFFFFFFFFFFFFFFFFFFFFFFFFFFFFFFF AND MUL OR SWAP1 SSTORE POP PUSH1 0x0 PUSH8 0xFFFFFFFFFFFFFFFF DUP2 GT ISZERO PUSH2 0x109C JUMPI PUSH2 0x109B PUSH2 0x1961 JUMP JUMPDEST JUMPDEST PUSH1 0x40 MLOAD SWAP1 DUP1 DUP3 MSTORE DUP1 PUSH1 0x20 MUL PUSH1 0x20 ADD DUP3 ADD PUSH1 0x40 MSTORE DUP1 ISZERO PUSH2 0x10CA JUMPI DUP2 PUSH1 0x20 ADD PUSH1 0x20 DUP3 MUL DUP1 CALLDATASIZE DUP4 CALLDATACOPY DUP1 DUP3 ADD SWAP2 POP POP SWAP1 POP JUMPDEST POP PUSH1 0x3 SWAP1 DUP1 MLOAD SWAP1 PUSH1 0x20 ADD SWAP1 PUSH2 0x10E0 SWAP3 SWAP2 SWAP1 PUSH2 0x15D0 JUMP JUMPDEST POP PUSH1 0x0 PUSH1 0x4 PUSH1 0x14 PUSH2 0x100 EXP DUP2 SLOAD DUP2 PUSH1 0xFF MUL NOT AND SWAP1 DUP4 PUSH1 0x1 DUP2 GT ISZERO PUSH2 0x1107 JUMPI PUSH2 0x1106 PUSH2 0x16B5 JUMP JUMPDEST JUMPDEST MUL OR SWAP1 SSTORE POP TIMESTAMP PUSH1 0x5 DUP2 SWAP1 SSTORE POP PUSH1 0x0 DUP2 PUSH20 0xFFFFFFFFFFFFFFFFFFFFFFFFFFFFFFFFFFFFFFFF AND SELFBALANCE PUSH1 0x40 MLOAD PUSH2 0x1139 SWAP1 PUSH2 0x20DD JUMP JUMPDEST PUSH1 0x0 PUSH1 0x40 MLOAD DUP1 DUP4 SUB DUP2 DUP6 DUP8 GAS CALL SWAP3 POP POP POP RETURNDATASIZE DUP1 PUSH1 0x0 DUP2 EQ PUSH2 0x1176 JUMPI PUSH1 0x40 MLOAD SWAP2 POP PUSH1 0x1F NOT PUSH1 0x3F RETURNDATASIZE ADD AND DUP3 ADD PUSH1 0x40 MSTORE RETURNDATASIZE DUP3 MSTORE RETURNDATASIZE PUSH1 0x0 PUSH1 0x20 DUP5 ADD RETURNDATACOPY PUSH2 0x117B JUMP JUMPDEST PUSH1 0x60 SWAP2 POP JUMPDEST POP POP SWAP1 POP DUP1 PUSH2 0x11B6 JUMPI PUSH1 0x40 MLOAD PUSH32 0xA1D04B3900000000000000000000000000000000000000000000000000000000 DUP2 MSTORE PUSH1 0x4 ADD PUSH1 0x40 MLOAD DUP1 SWAP2 SUB SWAP1 REVERT JUMPDEST DUP2 PUSH20 0xFFFFFFFFFFFFFFFFFFFFFFFFFFFFFFFFFFFFFFFF AND PUSH32 0x5B690EC4A06FE979403046EAEEA5B3CE38524683C3001F662C8B5A829632F7DF PUSH1 0x40 MLOAD PUSH1 0x40 MLOAD DUP1 SWAP2 SUB SWAP1 LOG2 POP POP POP POP POP POP JUMP JUMPDEST PUSH2 0x1297 DUP2 PUSH1 0x40 MLOAD PUSH1 0x24 ADD PUSH2 0x1215 SWAP2 SWAP1 PUSH2 0x2136 JUMP JUMPDEST PUSH1 0x40 MLOAD PUSH1 0x20 DUP2 DUP4 SUB SUB DUP2 MSTORE SWAP1 PUSH1 0x40 MSTORE PUSH32 0x41304FAC00000000000000000000000000000000000000000000000000000000 PUSH28 0xFFFFFFFFFFFFFFFFFFFFFFFFFFFFFFFFFFFFFFFFFFFFFFFFFFFFFFFF NOT AND PUSH1 0x20 DUP3 ADD DUP1 MLOAD PUSH28 0xFFFFFFFFFFFFFFFFFFFFFFFFFFFFFFFFFFFFFFFFFFFFFFFFFFFFFFFF DUP4 DUP2 DUP4 AND OR DUP4 MSTORE POP POP POP POP PUSH2 0x158A JUMP JUMPDEST POP JUMP JUMPDEST PUSH1 0x60 PUSH32 0x92FD13387C7FE7BEFBC38D303D6468778FB9731BC4583F17D92989C6FCFDEAAA DUP3 PUSH1 0x40 MLOAD PUSH1 0x24 ADD PUSH2 0x12CE SWAP2 SWAP1 PUSH2 0x2183 JUMP JUMPDEST PUSH1 0x40 MLOAD PUSH1 0x20 DUP2 DUP4 SUB SUB DUP2 MSTORE SWAP1 PUSH1 0x40 MSTORE SWAP1 PUSH28 0xFFFFFFFFFFFFFFFFFFFFFFFFFFFFFFFFFFFFFFFFFFFFFFFFFFFFFFFF NOT AND PUSH1 0x20 DUP3 ADD DUP1 MLOAD PUSH28 0xFFFFFFFFFFFFFFFFFFFFFFFFFFFFFFFFFFFFFFFFFFFFFFFFFFFFFFFF DUP4 DUP2 DUP4 AND OR DUP4 MSTORE POP POP POP POP SWAP1 POP SWAP2 SWAP1 POP JUMP JUMPDEST PUSH2 0x13CA DUP3 DUP3 PUSH1 0x40 MLOAD PUSH1 0x24 ADD PUSH2 0x1348 SWAP3 SWAP2 SWAP1 PUSH2 0x219E JUMP JUMPDEST PUSH1 0x40 MLOAD PUSH1 0x20 DUP2 DUP4 SUB SUB DUP2 MSTORE SWAP1 PUSH1 0x40 MSTORE PUSH32 0xB60E72CC00000000000000000000000000000000000000000000000000000000 PUSH28 0xFFFFFFFFFFFFFFFFFFFFFFFFFFFFFFFFFFFFFFFFFFFFFFFFFFFFFFFF NOT AND PUSH1 0x20 DUP3 ADD DUP1 MLOAD PUSH28 0xFFFFFFFFFFFFFFFFFFFFFFFFFFFFFFFFFFFFFFFFFFFFFFFFFFFFFFFF DUP4 DUP2 DUP4 AND OR DUP4 MSTORE POP POP POP POP PUSH2 0x158A JUMP JUMPDEST POP POP JUMP JUMPDEST PUSH1 0x0 DUP1 SLOAD SWAP1 PUSH2 0x100 EXP SWAP1 DIV PUSH20 0xFFFFFFFFFFFFFFFFFFFFFFFFFFFFFFFFFFFFFFFF AND PUSH20 0xFFFFFFFFFFFFFFFFFFFFFFFFFFFFFFFFFFFFFFFF AND CALLER PUSH20 0xFFFFFFFFFFFFFFFFFFFFFFFFFFFFFFFFFFFFFFFF AND EQ PUSH2 0x145C JUMPI PUSH1 0x40 MLOAD PUSH32 0x8C379A000000000000000000000000000000000000000000000000000000000 DUP2 MSTORE PUSH1 0x4 ADD PUSH2 0x1453 SWAP1 PUSH2 0x221A JUMP JUMPDEST PUSH1 0x40 MLOAD DUP1 SWAP2 SUB SWAP1 REVERT JUMPDEST JUMP JUMPDEST CALLER PUSH20 0xFFFFFFFFFFFFFFFFFFFFFFFFFFFFFFFFFFFFFFFF AND DUP2 PUSH20 0xFFFFFFFFFFFFFFFFFFFFFFFFFFFFFFFFFFFFFFFF AND SUB PUSH2 0x14CC JUMPI PUSH1 0x40 MLOAD PUSH32 0x8C379A000000000000000000000000000000000000000000000000000000000 DUP2 MSTORE PUSH1 0x4 ADD PUSH2 0x14C3 SWAP1 PUSH2 0x2286 JUMP JUMPDEST PUSH1 0x40 MLOAD DUP1 SWAP2 SUB SWAP1 REVERT JUMPDEST DUP1 PUSH1 0x1 PUSH1 0x0 PUSH2 0x100 EXP DUP2 SLOAD DUP2 PUSH20 0xFFFFFFFFFFFFFFFFFFFFFFFFFFFFFFFFFFFFFFFF MUL NOT AND SWAP1 DUP4 PUSH20 0xFFFFFFFFFFFFFFFFFFFFFFFFFFFFFFFFFFFFFFFF AND MUL OR SWAP1 SSTORE POP DUP1 PUSH20 0xFFFFFFFFFFFFFFFFFFFFFFFFFFFFFFFFFFFFFFFF AND PUSH1 0x0 DUP1 SLOAD SWAP1 PUSH2 0x100 EXP SWAP1 DIV PUSH20 0xFFFFFFFFFFFFFFFFFFFFFFFFFFFFFFFFFFFFFFFF AND PUSH20 0xFFFFFFFFFFFFFFFFFFFFFFFFFFFFFFFFFFFFFFFF AND PUSH32 0xED8889F560326EB138920D842192F0EB3DD22B4F139C87A2C57538E05BAE1278 PUSH1 0x40 MLOAD PUSH1 0x40 MLOAD DUP1 SWAP2 SUB SWAP1 LOG3 POP JUMP JUMPDEST PUSH2 0x15A1 DUP2 PUSH2 0x1599 PUSH2 0x15A4 PUSH2 0x15C5 JUMP JUMPDEST PUSH4 0xFFFFFFFF AND JUMP JUMPDEST POP JUMP JUMPDEST PUSH1 0x0 PUSH11 0x636F6E736F6C652E6C6F67 SWAP1 POP PUSH1 0x0 DUP1 DUP4 MLOAD PUSH1 0x20 DUP6 ADD DUP5 GAS STATICCALL POP POP POP JUMP JUMPDEST PUSH2 0x165A DUP2 SWAP1 POP SWAP2 SWAP1 POP JUMP JUMPDEST DUP3 DUP1 SLOAD DUP3 DUP3 SSTORE SWAP1 PUSH1 0x0 MSTORE PUSH1 0x20 PUSH1 0x0 KECCAK256 SWAP1 DUP2 ADD SWAP3 DUP3 ISZERO PUSH2 0x1649 JUMPI SWAP2 PUSH1 0x20 MUL DUP3 ADD JUMPDEST DUP3 DUP2 GT ISZERO PUSH2 0x1648 JUMPI DUP3 MLOAD DUP3 PUSH1 0x0 PUSH2 0x100 EXP DUP2 SLOAD DUP2 PUSH20 0xFFFFFFFFFFFFFFFFFFFFFFFFFFFFFFFFFFFFFFFF MUL NOT AND SWAP1 DUP4 PUSH20 0xFFFFFFFFFFFFFFFFFFFFFFFFFFFFFFFFFFFFFFFF AND MUL OR SWAP1 SSTORE POP SWAP2 PUSH1 0x20 ADD SWAP2 SWAP1 PUSH1 0x1 ADD SWAP1 PUSH2 0x15F0 JUMP JUMPDEST JUMPDEST POP SWAP1 POP PUSH2 0x1656 SWAP2 SWAP1 PUSH2 0x1664 JUMP JUMPDEST POP SWAP1 JUMP JUMPDEST PUSH2 0x1662 PUSH2 0x22A6 JUMP JUMPDEST JUMP JUMPDEST JUMPDEST DUP1 DUP3 GT ISZERO PUSH2 0x167D JUMPI PUSH1 0x0 DUP2 PUSH1 0x0 SWAP1 SSTORE POP PUSH1 0x1 ADD PUSH2 0x1665 JUMP JUMPDEST POP SWAP1 JUMP JUMPDEST PUSH1 0x0 DUP2 SWAP1 POP SWAP2 SWAP1 POP JUMP JUMPDEST PUSH2 0x1694 DUP2 PUSH2 0x1681 JUMP JUMPDEST DUP3 MSTORE POP POP JUMP JUMPDEST PUSH1 0x0 PUSH1 0x20 DUP3 ADD SWAP1 POP PUSH2 0x16AF PUSH1 0x0 DUP4 ADD DUP5 PUSH2 0x168B JUMP JUMPDEST SWAP3 SWAP2 POP POP JUMP JUMPDEST PUSH32 0x4E487B7100000000000000000000000000000000000000000000000000000000 PUSH1 0x0 MSTORE PUSH1 0x21 PUSH1 0x4 MSTORE PUSH1 0x24 PUSH1 0x0 REVERT JUMPDEST PUSH1 0x2 DUP2 LT PUSH2 0x16F5 JUMPI PUSH2 0x16F4 PUSH2 0x16B5 JUMP JUMPDEST JUMPDEST POP JUMP JUMPDEST PUSH1 0x0 DUP2 SWAP1 POP PUSH2 0x1706 DUP3 PUSH2 0x16E4 JUMP JUMPDEST SWAP2 SWAP1 POP JUMP JUMPDEST PUSH1 0x0 PUSH2 0x1716 DUP3 PUSH2 0x16F8 JUMP JUMPDEST SWAP1 POP SWAP2 SWAP1 POP JUMP JUMPDEST PUSH2 0x1726 DUP2 PUSH2 0x170B JUMP JUMPDEST DUP3 MSTORE POP POP JUMP JUMPDEST PUSH1 0x0 PUSH1 0x20 DUP3 ADD SWAP1 POP PUSH2 0x1741 PUSH1 0x0 DUP4 ADD DUP5 PUSH2 0x171D JUMP JUMPDEST SWAP3 SWAP2 POP POP JUMP JUMPDEST PUSH1 0x0 PUSH1 0x40 MLOAD SWAP1 POP SWAP1 JUMP JUMPDEST PUSH1 0x0 DUP1 REVERT JUMPDEST PUSH1 0x0 DUP1 REVERT JUMPDEST PUSH2 0x1764 DUP2 PUSH2 0x1681 JUMP JUMPDEST DUP2 EQ PUSH2 0x176F JUMPI PUSH1 0x0 DUP1 REVERT JUMPDEST POP JUMP JUMPDEST PUSH1 0x0 DUP2 CALLDATALOAD SWAP1 POP PUSH2 0x1781 DUP2 PUSH2 0x175B JUMP JUMPDEST SWAP3 SWAP2 POP POP JUMP JUMPDEST PUSH1 0x0 DUP1 REVERT JUMPDEST PUSH1 0x0 DUP1 REVERT JUMPDEST PUSH1 0x0 DUP1 REVERT JUMPDEST PUSH1 0x0 DUP1 DUP4 PUSH1 0x1F DUP5 ADD SLT PUSH2 0x17AC JUMPI PUSH2 0x17AB PUSH2 0x1787 JUMP JUMPDEST JUMPDEST DUP3 CALLDATALOAD SWAP1 POP PUSH8 0xFFFFFFFFFFFFFFFF DUP2 GT ISZERO PUSH2 0x17C9 JUMPI PUSH2 0x17C8 PUSH2 0x178C JUMP JUMPDEST JUMPDEST PUSH1 0x20 DUP4 ADD SWAP2 POP DUP4 PUSH1 0x20 DUP3 MUL DUP4 ADD GT ISZERO PUSH2 0x17E5 JUMPI PUSH2 0x17E4 PUSH2 0x1791 JUMP JUMPDEST JUMPDEST SWAP3 POP SWAP3 SWAP1 POP JUMP JUMPDEST PUSH1 0x0 DUP1 PUSH1 0x0 PUSH1 0x40 DUP5 DUP7 SUB SLT ISZERO PUSH2 0x1805 JUMPI PUSH2 0x1804 PUSH2 0x1751 JUMP JUMPDEST JUMPDEST PUSH1 0x0 PUSH2 0x1813 DUP7 DUP3 DUP8 ADD PUSH2 0x1772 JUMP JUMPDEST SWAP4 POP POP PUSH1 0x20 DUP5 ADD CALLDATALOAD PUSH8 0xFFFFFFFFFFFFFFFF DUP2 GT ISZERO PUSH2 0x1834 JUMPI PUSH2 0x1833 PUSH2 0x1756 JUMP JUMPDEST JUMPDEST PUSH2 0x1840 DUP7 DUP3 DUP8 ADD PUSH2 0x1796 JUMP JUMPDEST SWAP3 POP SWAP3 POP POP SWAP3 POP SWAP3 POP SWAP3 JUMP JUMPDEST PUSH1 0x0 DUP1 DUP4 PUSH1 0x1F DUP5 ADD SLT PUSH2 0x1862 JUMPI PUSH2 0x1861 PUSH2 0x1787 JUMP JUMPDEST JUMPDEST DUP3 CALLDATALOAD SWAP1 POP PUSH8 0xFFFFFFFFFFFFFFFF DUP2 GT ISZERO PUSH2 0x187F JUMPI PUSH2 0x187E PUSH2 0x178C JUMP JUMPDEST JUMPDEST PUSH1 0x20 DUP4 ADD SWAP2 POP DUP4 PUSH1 0x1 DUP3 MUL DUP4 ADD GT ISZERO PUSH2 0x189B JUMPI PUSH2 0x189A PUSH2 0x1791 JUMP JUMPDEST JUMPDEST SWAP3 POP SWAP3 SWAP1 POP JUMP JUMPDEST PUSH1 0x0 DUP1 PUSH1 0x20 DUP4 DUP6 SUB SLT ISZERO PUSH2 0x18B9 JUMPI PUSH2 0x18B8 PUSH2 0x1751 JUMP JUMPDEST JUMPDEST PUSH1 0x0 DUP4 ADD CALLDATALOAD PUSH8 0xFFFFFFFFFFFFFFFF DUP2 GT ISZERO PUSH2 0x18D7 JUMPI PUSH2 0x18D6 PUSH2 0x1756 JUMP JUMPDEST JUMPDEST PUSH2 0x18E3 DUP6 DUP3 DUP7 ADD PUSH2 0x184C JUMP JUMPDEST SWAP3 POP SWAP3 POP POP SWAP3 POP SWAP3 SWAP1 POP JUMP JUMPDEST PUSH1 0x0 PUSH20 0xFFFFFFFFFFFFFFFFFFFFFFFFFFFFFFFFFFFFFFFF DUP3 AND SWAP1 POP SWAP2 SWAP1 POP JUMP JUMPDEST PUSH1 0x0 PUSH2 0x191A DUP3 PUSH2 0x18EF JUMP JUMPDEST SWAP1 POP SWAP2 SWAP1 POP JUMP JUMPDEST PUSH2 0x192A DUP2 PUSH2 0x190F JUMP JUMPDEST DUP3 MSTORE POP POP JUMP JUMPDEST PUSH1 0x0 PUSH1 0x20 DUP3 ADD SWAP1 POP PUSH2 0x1945 PUSH1 0x0 DUP4 ADD DUP5 PUSH2 0x1921 JUMP JUMPDEST SWAP3 SWAP2 POP POP JUMP JUMPDEST PUSH1 0x0 DUP1 REVERT JUMPDEST PUSH1 0x0 PUSH1 0x1F NOT PUSH1 0x1F DUP4 ADD AND SWAP1 POP SWAP2 SWAP1 POP JUMP JUMPDEST PUSH32 0x4E487B7100000000000000000000000000000000000000000000000000000000 PUSH1 0x0 MSTORE PUSH1 0x41 PUSH1 0x4 MSTORE PUSH1 0x24 PUSH1 0x0 REVERT JUMPDEST PUSH2 0x1999 DUP3 PUSH2 0x1950 JUMP JUMPDEST DUP2 ADD DUP2 DUP2 LT PUSH8 0xFFFFFFFFFFFFFFFF DUP3 GT OR ISZERO PUSH2 0x19B8 JUMPI PUSH2 0x19B7 PUSH2 0x1961 JUMP JUMPDEST JUMPDEST DUP1 PUSH1 0x40 MSTORE POP POP POP JUMP JUMPDEST PUSH1 0x0 PUSH2 0x19CB PUSH2 0x1747 JUMP JUMPDEST SWAP1 POP PUSH2 0x19D7 DUP3 DUP3 PUSH2 0x1990 JUMP JUMPDEST SWAP2 SWAP1 POP JUMP JUMPDEST PUSH1 0x0 PUSH8 0xFFFFFFFFFFFFFFFF DUP3 GT ISZERO PUSH2 0x19F7 JUMPI PUSH2 0x19F6 PUSH2 0x1961 JUMP JUMPDEST JUMPDEST PUSH2 0x1A00 DUP3 PUSH2 0x1950 JUMP JUMPDEST SWAP1 POP PUSH1 0x20 DUP2 ADD SWAP1 POP SWAP2 SWAP1 POP JUMP JUMPDEST DUP3 DUP2 DUP4 CALLDATACOPY PUSH1 0x0 DUP4 DUP4 ADD MSTORE POP POP POP JUMP JUMPDEST PUSH1 0x0 PUSH2 0x1A2F PUSH2 0x1A2A DUP5 PUSH2 0x19DC JUMP JUMPDEST PUSH2 0x19C1 JUMP JUMPDEST SWAP1 POP DUP3 DUP2 MSTORE PUSH1 0x20 DUP2 ADD DUP5 DUP5 DUP5 ADD GT ISZERO PUSH2 0x1A4B JUMPI PUSH2 0x1A4A PUSH2 0x194B JUMP JUMPDEST JUMPDEST PUSH2 0x1A56 DUP5 DUP3 DUP6 PUSH2 0x1A0D JUMP JUMPDEST POP SWAP4 SWAP3 POP POP POP JUMP JUMPDEST PUSH1 0x0 DUP3 PUSH1 0x1F DUP4 ADD SLT PUSH2 0x1A73 JUMPI PUSH2 0x1A72 PUSH2 0x1787 JUMP JUMPDEST JUMPDEST DUP2 CALLDATALOAD PUSH2 0x1A83 DUP5 DUP3 PUSH1 0x20 DUP7 ADD PUSH2 0x1A1C JUMP JUMPDEST SWAP2 POP POP SWAP3 SWAP2 POP POP JUMP JUMPDEST PUSH1 0x0 PUSH1 0x20 DUP3 DUP5 SUB SLT ISZERO PUSH2 0x1AA2 JUMPI PUSH2 0x1AA1 PUSH2 0x1751 JUMP JUMPDEST JUMPDEST PUSH1 0x0 DUP3 ADD CALLDATALOAD PUSH8 0xFFFFFFFFFFFFFFFF DUP2 GT ISZERO PUSH2 0x1AC0 JUMPI PUSH2 0x1ABF PUSH2 0x1756 JUMP JUMPDEST JUMPDEST PUSH2 0x1ACC DUP5 DUP3 DUP6 ADD PUSH2 0x1A5E JUMP JUMPDEST SWAP2 POP POP SWAP3 SWAP2 POP POP JUMP JUMPDEST PUSH1 0x0 DUP2 ISZERO ISZERO SWAP1 POP SWAP2 SWAP1 POP JUMP JUMPDEST PUSH2 0x1AEA DUP2 PUSH2 0x1AD5 JUMP JUMPDEST DUP3 MSTORE POP POP JUMP JUMPDEST PUSH1 0x0 DUP2 MLOAD SWAP1 POP SWAP2 SWAP1 POP JUMP JUMPDEST PUSH1 0x0 DUP3 DUP3 MSTORE PUSH1 0x20 DUP3 ADD SWAP1 POP SWAP3 SWAP2 POP POP JUMP JUMPDEST PUSH1 0x0 JUMPDEST DUP4 DUP2 LT ISZERO PUSH2 0x1B2A JUMPI DUP1 DUP3 ADD MLOAD DUP2 DUP5 ADD MSTORE PUSH1 0x20 DUP2 ADD SWAP1 POP PUSH2 0x1B0F JUMP JUMPDEST PUSH1 0x0 DUP5 DUP5 ADD MSTORE POP POP POP POP JUMP JUMPDEST PUSH1 0x0 PUSH2 0x1B41 DUP3 PUSH2 0x1AF0 JUMP JUMPDEST PUSH2 0x1B4B DUP2 DUP6 PUSH2 0x1AFB JUMP JUMPDEST SWAP4 POP PUSH2 0x1B5B DUP2 DUP6 PUSH1 0x20 DUP7 ADD PUSH2 0x1B0C JUMP JUMPDEST PUSH2 0x1B64 DUP2 PUSH2 0x1950 JUMP JUMPDEST DUP5 ADD SWAP2 POP POP SWAP3 SWAP2 POP POP JUMP JUMPDEST PUSH1 0x0 PUSH1 0x40 DUP3 ADD SWAP1 POP PUSH2 0x1B84 PUSH1 0x0 DUP4 ADD DUP6 PUSH2 0x1AE1 JUMP JUMPDEST DUP2 DUP2 SUB PUSH1 0x20 DUP4 ADD MSTORE PUSH2 0x1B96 DUP2 DUP5 PUSH2 0x1B36 JUMP JUMPDEST SWAP1 POP SWAP4 SWAP3 POP POP POP JUMP JUMPDEST PUSH2 0x1BA8 DUP2 PUSH2 0x190F JUMP JUMPDEST DUP2 EQ PUSH2 0x1BB3 JUMPI PUSH1 0x0 DUP1 REVERT JUMPDEST POP JUMP JUMPDEST PUSH1 0x0 DUP2 CALLDATALOAD SWAP1 POP PUSH2 0x1BC5 DUP2 PUSH2 0x1B9F JUMP JUMPDEST SWAP3 SWAP2 POP POP JUMP JUMPDEST PUSH1 0x0 PUSH1 0x20 DUP3 DUP5 SUB SLT ISZERO PUSH2 0x1BE1 JUMPI PUSH2 0x1BE0 PUSH2 0x1751 JUMP JUMPDEST JUMPDEST PUSH1 0x0 PUSH2 0x1BEF DUP5 DUP3 DUP6 ADD PUSH2 0x1BB6 JUMP JUMPDEST SWAP2 POP POP SWAP3 SWAP2 POP POP JUMP JUMPDEST PUSH1 0x0 DUP2 SWAP1 POP SWAP2 SWAP1 POP JUMP JUMPDEST PUSH1 0x0 PUSH2 0x1C1D PUSH2 0x1C18 PUSH2 0x1C13 DUP5 PUSH2 0x18EF JUMP JUMPDEST PUSH2 0x1BF8 JUMP JUMPDEST PUSH2 0x18EF JUMP JUMPDEST SWAP1 POP SWAP2 SWAP1 POP JUMP JUMPDEST PUSH1 0x0 PUSH2 0x1C2F DUP3 PUSH2 0x1C02 JUMP JUMPDEST SWAP1 POP SWAP2 SWAP1 POP JUMP JUMPDEST PUSH1 0x0 PUSH2 0x1C41 DUP3 PUSH2 0x1C24 JUMP JUMPDEST SWAP1 POP SWAP2 SWAP1 POP JUMP JUMPDEST PUSH2 0x1C51 DUP2 PUSH2 0x1C36 JUMP JUMPDEST DUP3 MSTORE POP POP JUMP JUMPDEST PUSH1 0x0 PUSH1 0x20 DUP3 ADD SWAP1 POP PUSH2 0x1C6C PUSH1 0x0 DUP4 ADD DUP5 PUSH2 0x1C48 JUMP JUMPDEST SWAP3 SWAP2 POP POP JUMP JUMPDEST PUSH1 0x0 PUSH1 0x20 DUP3 DUP5 SUB SLT ISZERO PUSH2 0x1C88 JUMPI PUSH2 0x1C87 PUSH2 0x1751 JUMP JUMPDEST JUMPDEST PUSH1 0x0 PUSH2 0x1C96 DUP5 DUP3 DUP6 ADD PUSH2 0x1772 JUMP JUMPDEST SWAP2 POP POP SWAP3 SWAP2 POP POP JUMP JUMPDEST PUSH1 0x0 PUSH1 0x40 DUP3 ADD SWAP1 POP PUSH2 0x1CB4 PUSH1 0x0 DUP4 ADD DUP6 PUSH2 0x1921 JUMP JUMPDEST PUSH2 0x1CC1 PUSH1 0x20 DUP4 ADD DUP5 PUSH2 0x1921 JUMP JUMPDEST SWAP4 SWAP3 POP POP POP JUMP JUMPDEST PUSH1 0x0 PUSH1 0x60 DUP3 ADD SWAP1 POP PUSH2 0x1CDD PUSH1 0x0 DUP4 ADD DUP7 PUSH2 0x168B JUMP JUMPDEST PUSH2 0x1CEA PUSH1 0x20 DUP4 ADD DUP6 PUSH2 0x168B JUMP JUMPDEST PUSH2 0x1CF7 PUSH1 0x40 DUP4 ADD DUP5 PUSH2 0x168B JUMP JUMPDEST SWAP5 SWAP4 POP POP POP POP JUMP JUMPDEST PUSH1 0x0 DUP2 SWAP1 POP SWAP2 SWAP1 POP JUMP JUMPDEST PUSH2 0x1D12 DUP2 PUSH2 0x1CFF JUMP JUMPDEST DUP3 MSTORE POP POP JUMP JUMPDEST PUSH2 0x1D21 DUP2 PUSH2 0x1681 JUMP JUMPDEST DUP3 MSTORE POP POP JUMP JUMPDEST PUSH1 0x0 PUSH2 0xFFFF DUP3 AND SWAP1 POP SWAP2 SWAP1 POP JUMP JUMPDEST PUSH2 0x1D3E DUP2 PUSH2 0x1D27 JUMP JUMPDEST DUP3 MSTORE POP POP JUMP JUMPDEST PUSH1 0x0 PUSH4 0xFFFFFFFF DUP3 AND SWAP1 POP SWAP2 SWAP1 POP JUMP JUMPDEST PUSH2 0x1D5D DUP2 PUSH2 0x1D44 JUMP JUMPDEST DUP3 MSTORE POP POP JUMP JUMPDEST PUSH1 0x0 DUP3 DUP3 MSTORE PUSH1 0x20 DUP3 ADD SWAP1 POP SWAP3 SWAP2 POP POP JUMP JUMPDEST PUSH1 0x0 PUSH2 0x1D7F DUP3 PUSH2 0x1AF0 JUMP JUMPDEST PUSH2 0x1D89 DUP2 DUP6 PUSH2 0x1D63 JUMP JUMPDEST SWAP4 POP PUSH2 0x1D99 DUP2 DUP6 PUSH1 0x20 DUP7 ADD PUSH2 0x1B0C JUMP JUMPDEST PUSH2 0x1DA2 DUP2 PUSH2 0x1950 JUMP JUMPDEST DUP5 ADD SWAP2 POP POP SWAP3 SWAP2 POP POP JUMP JUMPDEST PUSH1 0x0 PUSH1 0xC0 DUP4 ADD PUSH1 0x0 DUP4 ADD MLOAD PUSH2 0x1DC5 PUSH1 0x0 DUP7 ADD DUP3 PUSH2 0x1D09 JUMP JUMPDEST POP PUSH1 0x20 DUP4 ADD MLOAD PUSH2 0x1DD8 PUSH1 0x20 DUP7 ADD DUP3 PUSH2 0x1D18 JUMP JUMPDEST POP PUSH1 0x40 DUP4 ADD MLOAD PUSH2 0x1DEB PUSH1 0x40 DUP7 ADD DUP3 PUSH2 0x1D35 JUMP JUMPDEST POP PUSH1 0x60 DUP4 ADD MLOAD PUSH2 0x1DFE PUSH1 0x60 DUP7 ADD DUP3 PUSH2 0x1D54 JUMP JUMPDEST POP PUSH1 0x80 DUP4 ADD MLOAD PUSH2 0x1E11 PUSH1 0x80 DUP7 ADD DUP3 PUSH2 0x1D54 JUMP JUMPDEST POP PUSH1 0xA0 DUP4 ADD MLOAD DUP5 DUP3 SUB PUSH1 0xA0 DUP7 ADD MSTORE PUSH2 0x1E29 DUP3 DUP3 PUSH2 0x1D74 JUMP JUMPDEST SWAP2 POP POP DUP1 SWAP2 POP POP SWAP3 SWAP2 POP POP JUMP JUMPDEST PUSH1 0x0 PUSH1 0x20 DUP3 ADD SWAP1 POP DUP2 DUP2 SUB PUSH1 0x0 DUP4 ADD MSTORE PUSH2 0x1E50 DUP2 DUP5 PUSH2 0x1DAD JUMP JUMPDEST SWAP1 POP SWAP3 SWAP2 POP POP JUMP JUMPDEST PUSH1 0x0 DUP2 MLOAD SWAP1 POP PUSH2 0x1E67 DUP2 PUSH2 0x175B JUMP JUMPDEST SWAP3 SWAP2 POP POP JUMP JUMPDEST PUSH1 0x0 PUSH1 0x20 DUP3 DUP5 SUB SLT ISZERO PUSH2 0x1E83 JUMPI PUSH2 0x1E82 PUSH2 0x1751 JUMP JUMPDEST JUMPDEST PUSH1 0x0 PUSH2 0x1E91 DUP5 DUP3 DUP6 ADD PUSH2 0x1E58 JUMP JUMPDEST SWAP2 POP POP SWAP3 SWAP2 POP POP JUMP JUMPDEST PUSH32 0x4E487B7100000000000000000000000000000000000000000000000000000000 PUSH1 0x0 MSTORE PUSH1 0x11 PUSH1 0x4 MSTORE PUSH1 0x24 PUSH1 0x0 REVERT JUMPDEST PUSH1 0x0 PUSH2 0x1ED4 DUP3 PUSH2 0x1681 JUMP JUMPDEST SWAP2 POP PUSH2 0x1EDF DUP4 PUSH2 0x1681 JUMP JUMPDEST SWAP3 POP DUP3 DUP3 SUB SWAP1 POP DUP2 DUP2 GT ISZERO PUSH2 0x1EF7 JUMPI PUSH2 0x1EF6 PUSH2 0x1E9A JUMP JUMPDEST JUMPDEST SWAP3 SWAP2 POP POP JUMP JUMPDEST PUSH1 0x0 DUP3 DUP3 MSTORE PUSH1 0x20 DUP3 ADD SWAP1 POP SWAP3 SWAP2 POP POP JUMP JUMPDEST PUSH32 0x4D7573742062652070726F706F736564206F776E657200000000000000000000 PUSH1 0x0 DUP3 ADD MSTORE POP JUMP JUMPDEST PUSH1 0x0 PUSH2 0x1F44 PUSH1 0x16 DUP4 PUSH2 0x1EFD JUMP JUMPDEST SWAP2 POP PUSH2 0x1F4F DUP3 PUSH2 0x1F0E JUMP JUMPDEST PUSH1 0x20 DUP3 ADD SWAP1 POP SWAP2 SWAP1 POP JUMP JUMPDEST PUSH1 0x0 PUSH1 0x20 DUP3 ADD SWAP1 POP DUP2 DUP2 SUB PUSH1 0x0 DUP4 ADD MSTORE PUSH2 0x1F73 DUP2 PUSH2 0x1F37 JUMP JUMPDEST SWAP1 POP SWAP2 SWAP1 POP JUMP JUMPDEST PUSH1 0x0 PUSH1 0x60 DUP3 ADD SWAP1 POP PUSH2 0x1F8F PUSH1 0x0 DUP4 ADD DUP7 PUSH2 0x1921 JUMP JUMPDEST PUSH2 0x1F9C PUSH1 0x20 DUP4 ADD DUP6 PUSH2 0x1921 JUMP JUMPDEST PUSH2 0x1FA9 PUSH1 0x40 DUP4 ADD DUP5 PUSH2 0x1921 JUMP JUMPDEST SWAP5 SWAP4 POP POP POP POP JUMP JUMPDEST PUSH32 0x4E487B7100000000000000000000000000000000000000000000000000000000 PUSH1 0x0 MSTORE PUSH1 0x32 PUSH1 0x4 MSTORE PUSH1 0x24 PUSH1 0x0 REVERT JUMPDEST PUSH32 0x4E6F20706C617965727320696E2074686520726166666C652E00000000000000 PUSH1 0x0 DUP3 ADD MSTORE POP JUMP JUMPDEST PUSH1 0x0 PUSH2 0x2016 PUSH1 0x19 DUP4 PUSH2 0x1EFD JUMP JUMPDEST SWAP2 POP PUSH2 0x2021 DUP3 PUSH2 0x1FE0 JUMP JUMPDEST PUSH1 0x20 DUP3 ADD SWAP1 POP SWAP2 SWAP1 POP JUMP JUMPDEST PUSH1 0x0 PUSH1 0x20 DUP3 ADD SWAP1 POP DUP2 DUP2 SUB PUSH1 0x0 DUP4 ADD MSTORE PUSH2 0x2045 DUP2 PUSH2 0x2009 JUMP JUMPDEST SWAP1 POP SWAP2 SWAP1 POP JUMP JUMPDEST PUSH32 0x4E487B7100000000000000000000000000000000000000000000000000000000 PUSH1 0x0 MSTORE PUSH1 0x12 PUSH1 0x4 MSTORE PUSH1 0x24 PUSH1 0x0 REVERT JUMPDEST PUSH1 0x0 PUSH2 0x2086 DUP3 PUSH2 0x1681 JUMP JUMPDEST SWAP2 POP PUSH2 0x2091 DUP4 PUSH2 0x1681 JUMP JUMPDEST SWAP3 POP DUP3 PUSH2 0x20A1 JUMPI PUSH2 0x20A0 PUSH2 0x204C JUMP JUMPDEST JUMPDEST DUP3 DUP3 MOD SWAP1 POP SWAP3 SWAP2 POP POP JUMP JUMPDEST PUSH1 0x0 DUP2 SWAP1 POP SWAP3 SWAP2 POP POP JUMP JUMPDEST POP JUMP JUMPDEST PUSH1 0x0 PUSH2 0x20C7 PUSH1 0x0 DUP4 PUSH2 0x20AC JUMP JUMPDEST SWAP2 POP PUSH2 0x20D2 DUP3 PUSH2 0x20B7 JUMP JUMPDEST PUSH1 0x0 DUP3 ADD SWAP1 POP SWAP2 SWAP1 POP JUMP JUMPDEST PUSH1 0x0 PUSH2 0x20E8 DUP3 PUSH2 0x20BA JUMP JUMPDEST SWAP2 POP DUP2 SWAP1 POP SWAP2 SWAP1 POP JUMP JUMPDEST PUSH1 0x0 DUP2 MLOAD SWAP1 POP SWAP2 SWAP1 POP JUMP JUMPDEST PUSH1 0x0 PUSH2 0x2108 DUP3 PUSH2 0x20F2 JUMP JUMPDEST PUSH2 0x2112 DUP2 DUP6 PUSH2 0x1EFD JUMP JUMPDEST SWAP4 POP PUSH2 0x2122 DUP2 DUP6 PUSH1 0x20 DUP7 ADD PUSH2 0x1B0C JUMP JUMPDEST PUSH2 0x212B DUP2 PUSH2 0x1950 JUMP JUMPDEST DUP5 ADD SWAP2 POP POP SWAP3 SWAP2 POP POP JUMP JUMPDEST PUSH1 0x0 PUSH1 0x20 DUP3 ADD SWAP1 POP DUP2 DUP2 SUB PUSH1 0x0 DUP4 ADD MSTORE PUSH2 0x2150 DUP2 DUP5 PUSH2 0x20FD JUMP JUMPDEST SWAP1 POP SWAP3 SWAP2 POP POP JUMP JUMPDEST PUSH2 0x2161 DUP2 PUSH2 0x1AD5 JUMP JUMPDEST DUP3 MSTORE POP POP JUMP JUMPDEST PUSH1 0x20 DUP3 ADD PUSH1 0x0 DUP3 ADD MLOAD PUSH2 0x217D PUSH1 0x0 DUP6 ADD DUP3 PUSH2 0x2158 JUMP JUMPDEST POP POP POP POP JUMP JUMPDEST PUSH1 0x0 PUSH1 0x20 DUP3 ADD SWAP1 POP PUSH2 0x2198 PUSH1 0x0 DUP4 ADD DUP5 PUSH2 0x2167 JUMP JUMPDEST SWAP3 SWAP2 POP POP JUMP JUMPDEST PUSH1 0x0 PUSH1 0x40 DUP3 ADD SWAP1 POP DUP2 DUP2 SUB PUSH1 0x0 DUP4 ADD MSTORE PUSH2 0x21B8 DUP2 DUP6 PUSH2 0x20FD JUMP JUMPDEST SWAP1 POP PUSH2 0x21C7 PUSH1 0x20 DUP4 ADD DUP5 PUSH2 0x168B JUMP JUMPDEST SWAP4 SWAP3 POP POP POP JUMP JUMPDEST PUSH32 0x4F6E6C792063616C6C61626C65206279206F776E657200000000000000000000 PUSH1 0x0 DUP3 ADD MSTORE POP JUMP JUMPDEST PUSH1 0x0 PUSH2 0x2204 PUSH1 0x16 DUP4 PUSH2 0x1EFD JUMP JUMPDEST SWAP2 POP PUSH2 0x220F DUP3 PUSH2 0x21CE JUMP JUMPDEST PUSH1 0x20 DUP3 ADD SWAP1 POP SWAP2 SWAP1 POP JUMP JUMPDEST PUSH1 0x0 PUSH1 0x20 DUP3 ADD SWAP1 POP DUP2 DUP2 SUB PUSH1 0x0 DUP4 ADD MSTORE PUSH2 0x2233 DUP2 PUSH2 0x21F7 JUMP JUMPDEST SWAP1 POP SWAP2 SWAP1 POP JUMP JUMPDEST PUSH32 0x43616E6E6F74207472616E7366657220746F2073656C66000000000000000000 PUSH1 0x0 DUP3 ADD MSTORE POP JUMP JUMPDEST PUSH1 0x0 PUSH2 0x2270 PUSH1 0x17 DUP4 PUSH2 0x1EFD JUMP JUMPDEST SWAP2 POP PUSH2 0x227B DUP3 PUSH2 0x223A JUMP JUMPDEST PUSH1 0x20 DUP3 ADD SWAP1 POP SWAP2 SWAP1 POP JUMP JUMPDEST PUSH1 0x0 PUSH1 0x20 DUP3 ADD SWAP1 POP DUP2 DUP2 SUB PUSH1 0x0 DUP4 ADD MSTORE PUSH2 0x229F DUP2 PUSH2 0x2263 JUMP JUMPDEST SWAP1 POP SWAP2 SWAP1 POP JUMP JUMPDEST PUSH32 0x4E487B7100000000000000000000000000000000000000000000000000000000 PUSH1 0x0 MSTORE PUSH1 0x51 PUSH1 0x4 MSTORE PUSH1 0x24 PUSH1 0x0 REVERT INVALID PUSH6 0x6E7465726564 KECCAK256 PUSH7 0x756C66696C6C52 PUSH2 0x6E64 PUSH16 0x6D576F7264732066756E6374696F6E2E 0x2E 0x2E LOG2 PUSH5 0x6970667358 0x22 SLT KECCAK256 0xC9 SWAP14 MOD PUSH7 0x65E68574320E93 0xB2 0x27 0xCB CALLDATASIZE OR 0xAD DUP12 0xCC 0x24 PUSH16 0x45A12130974B27F5DAA75364736F6C63 NUMBER STOP ADDMOD SGT STOP CALLER "},"gasEstimates":{"creation":{"codeDepositCost":"1801800","executionCost":"infinite","totalCost":"infinite"},"external":{"acceptOwnership()":"54563","checkUpkeep(bytes)":"infinite","enterRaffle()":"infinite","getConfirmations()":"387","getEntranceFee()":"infinite","getInterval()":"infinite","getLatestTimeStamp()":"2460","getNumWords()":"432","getPlayer(uint256)":"5055","getRaffleState()":"2664","getRecentWinner()":"2589","noOfPlayers()":"2511","owner()":"2567","performUpkeep(bytes)":"infinite","rawFulfillRandomWords(uint256,uint256[])":"infinite","s_vrfCoordinator()":"infinite","setCoordinator(address)":"infinite","transferOwnership(address)":"30764"},"internal":{"fulfillRandomWords(uint256,uint256[] calldata)":"infinite"}},"methodIdentifiers":{"acceptOwnership()":"79ba5097","checkUpkeep(bytes)":"6e04ff0d","enterRaffle()":"2cfcc539","getConfirmations()":"c361ce83","getEntranceFee()":"09bc33a7","getInterval()":"91ad27b4","getLatestTimeStamp()":"320229eb","getNumWords()":"53a2c19a","getPlayer(uint256)":"e55ae4e8","getRaffleState()":"115cbaf5","getRecentWinner()":"473f1ddc","noOfPlayers()":"d4980c41","owner()":"8da5cb5b","performUpkeep(bytes)":"4585e33b","rawFulfillRandomWords(uint256,uint256[])":"1fe543e3","s_vrfCoordinator()":"9eccacf6","setCoordinator(address)":"8ea98117","transferOwnership(address)":"f2fde38b"}},"storageLayout":{"storage":[{"astId":48,"contract":"contracts/Raffle.sol:Raffle","label":"s_owner","offset":0,"slot":"0","type":"t_address"},{"astId":50,"contract":"contracts/Raffle.sol:Raffle","label":"s_pendingOwner","offset":0,"slot":"1","type":"t_address"},{"astId":250,"contract":"contracts/Raffle.sol:Raffle","label":"s_vrfCoordinator","offset":0,"slot":"2","type":"t_contract(IVRFCoordinatorV2Plus)399"},{"astId":689,"contract":"contracts/Raffle.sol:Raffle","label":"s_players","offset":0,"slot":"3","type":"t_array(t_address_payable)dyn_storage"},{"astId":691,"contract":"contracts/Raffle.sol:Raffle","label":"s_recentWinner","offset":0,"slot":"4","type":"t_address"},{"astId":694,"contract":"contracts/Raffle.sol:Raffle","label":"s_raffleState","offset":20,"slot":"4","type":"t_enum(RaffleState)669"},{"astId":696,"contract":"contracts/Raffle.sol:Raffle","label":"s_lastTimeStamp","offset":0,"slot":"5","type":"t_uint256"}],"types":{"t_address":{"encoding":"inplace","label":"address","numberOfBytes":"20"},"t_address_payable":{"encoding":"inplace","label":"address payable","numberOfBytes":"20"},"t_array(t_address_payable)dyn_storage":{"base":"t_address_payable","encoding":"dynamic_array","label":"address payable[]","numberOfBytes":"32"},"t_contract(IVRFCoordinatorV2Plus)399":{"encoding":"inplace","label":"contract IVRFCoordinatorV2Plus","numberOfBytes":"20"},"t_enum(RaffleState)669":{"encoding":"inplace","label":"enum Raffle.RaffleState","numberOfBytes":"1"},"t_uint256":{"encoding":"inplace","label":"uint256","numberOfBytes":"32"}}},"userdoc":{"events":{"RaffleEntered(address)":{"notice":"Events "}},"kind":"user","methods":{"acceptOwnership()":{"notice":"Allows an ownership transfer to be completed by the recipient."},"constructor":{"notice":"Functions "},"getEntranceFee()":{"notice":"View Functions "},"owner()":{"notice":"Get the current owner"},"setCoordinator(address)":{"notice":"Sets the VRF Coordinator addressThis method should only be callable by the coordinator or contract owner"},"transferOwnership(address)":{"notice":"Allows an owner to begin transferring ownership to a new address."}},"version":1}}}}