{
  "_format": "hh-sol-artifact-1",
  "contractName": "Raffle",
  "sourceName": "contracts/Raffle.sol",
  "abi": [
    {
      "inputs": [
        {
          "internalType": "address",
          "name": "vrfCoordinatorV2",
          "type": "address"
        },
        {
          "internalType": "uint256",
          "name": "entranceFee",
          "type": "uint256"
        },
        {
          "internalType": "bytes32",
          "name": "keyHash",
          "type": "bytes32"
        },
        {
          "internalType": "uint256",
          "name": "subId",
          "type": "uint256"
        },
        {
          "internalType": "uint32",
          "name": "callbackGasLimit",
          "type": "uint32"
        },
        {
          "internalType": "uint256",
          "name": "interval",
          "type": "uint256"
        }
      ],
      "stateMutability": "nonpayable",
      "type": "constructor"
    },
    {
      "inputs": [
        {
          "internalType": "address",
          "name": "have",
          "type": "address"
        },
        {
          "internalType": "address",
          "name": "want",
          "type": "address"
        }
      ],
      "name": "OnlyCoordinatorCanFulfill",
      "type": "error"
    },
    {
      "inputs": [
        {
          "internalType": "address",
          "name": "have",
          "type": "address"
        },
        {
          "internalType": "address",
          "name": "owner",
          "type": "address"
        },
        {
          "internalType": "address",
          "name": "coordinator",
          "type": "address"
        }
      ],
      "name": "OnlyOwnerOrCoordinator",
      "type": "error"
    },
    {
      "inputs": [],
      "name": "Raffle__NotEnoughETHEntered",
      "type": "error"
    },
    {
      "inputs": [],
      "name": "Raffle__NotOpen",
      "type": "error"
    },
    {
      "inputs": [],
      "name": "Raffle__TransferFailed",
      "type": "error"
    },
    {
      "inputs": [
        {
          "internalType": "uint256",
          "name": "currentBalance",
          "type": "uint256"
        },
        {
          "internalType": "uint256",
          "name": "numPlayers",
          "type": "uint256"
        },
        {
          "internalType": "uint256",
          "name": "raffleState",
          "type": "uint256"
        }
      ],
      "name": "Raffle__UpKeepNotNeeded",
      "type": "error"
    },
    {
      "inputs": [],
      "name": "ZeroAddress",
      "type": "error"
    },
    {
      "anonymous": false,
      "inputs": [
        {
          "indexed": false,
          "internalType": "address",
          "name": "vrfCoordinator",
          "type": "address"
        }
      ],
      "name": "CoordinatorSet",
      "type": "event"
    },
    {
      "anonymous": false,
      "inputs": [
        {
          "indexed": true,
          "internalType": "address",
          "name": "from",
          "type": "address"
        },
        {
          "indexed": true,
          "internalType": "address",
          "name": "to",
          "type": "address"
        }
      ],
      "name": "OwnershipTransferRequested",
      "type": "event"
    },
    {
      "anonymous": false,
      "inputs": [
        {
          "indexed": true,
          "internalType": "address",
          "name": "from",
          "type": "address"
        },
        {
          "indexed": true,
          "internalType": "address",
          "name": "to",
          "type": "address"
        }
      ],
      "name": "OwnershipTransferred",
      "type": "event"
    },
    {
      "anonymous": false,
      "inputs": [
        {
          "indexed": true,
          "internalType": "address",
          "name": "player",
          "type": "address"
        }
      ],
      "name": "RaffleEntered",
      "type": "event"
    },
    {
      "anonymous": false,
      "inputs": [
        {
          "indexed": true,
          "internalType": "uint256",
          "name": "requestId",
          "type": "uint256"
        }
      ],
      "name": "RequestRandomWinner",
      "type": "event"
    },
    {
      "anonymous": false,
      "inputs": [
        {
          "indexed": true,
          "internalType": "address",
          "name": "winner",
          "type": "address"
        }
      ],
      "name": "WinnerPicked",
      "type": "event"
    },
    {
      "inputs": [],
      "name": "acceptOwnership",
      "outputs": [],
      "stateMutability": "nonpayable",
      "type": "function"
    },
    {
      "inputs": [
        {
          "internalType": "bytes",
          "name": "",
          "type": "bytes"
        }
      ],
      "name": "checkUpkeep",
      "outputs": [
        {
          "internalType": "bool",
          "name": "upkeepNeeded",
          "type": "bool"
        },
        {
          "internalType": "bytes",
          "name": "",
          "type": "bytes"
        }
      ],
      "stateMutability": "nonpayable",
      "type": "function"
    },
    {
      "inputs": [],
      "name": "enterRaffle",
      "outputs": [],
      "stateMutability": "payable",
      "type": "function"
    },
    {
      "inputs": [],
      "name": "getConfirmations",
      "outputs": [
        {
          "internalType": "uint256",
          "name": "",
          "type": "uint256"
        }
      ],
      "stateMutability": "pure",
      "type": "function"
    },
    {
      "inputs": [],
      "name": "getEntranceFee",
      "outputs": [
        {
          "internalType": "uint256",
          "name": "",
          "type": "uint256"
        }
      ],
      "stateMutability": "view",
      "type": "function"
    },
    {
      "inputs": [],
      "name": "getInterval",
      "outputs": [
        {
          "internalType": "uint256",
          "name": "",
          "type": "uint256"
        }
      ],
      "stateMutability": "view",
      "type": "function"
    },
    {
      "inputs": [],
      "name": "getLatestTimeStamp",
      "outputs": [
        {
          "internalType": "uint256",
          "name": "",
          "type": "uint256"
        }
      ],
      "stateMutability": "view",
      "type": "function"
    },
    {
      "inputs": [],
      "name": "getNumWords",
      "outputs": [
        {
          "internalType": "uint256",
          "name": "",
          "type": "uint256"
        }
      ],
      "stateMutability": "pure",
      "type": "function"
    },
    {
      "inputs": [
        {
          "internalType": "uint256",
          "name": "index",
          "type": "uint256"
        }
      ],
      "name": "getPlayer",
      "outputs": [
        {
          "internalType": "address",
          "name": "",
          "type": "address"
        }
      ],
      "stateMutability": "view",
      "type": "function"
    },
    {
      "inputs": [],
      "name": "getRaffleState",
      "outputs": [
        {
          "internalType": "enum Raffle.RaffleState",
          "name": "",
          "type": "uint8"
        }
      ],
      "stateMutability": "view",
      "type": "function"
    },
    {
      "inputs": [],
      "name": "getRecentWinner",
      "outputs": [
        {
          "internalType": "address",
          "name": "",
          "type": "address"
        }
      ],
      "stateMutability": "view",
      "type": "function"
    },
    {
      "inputs": [],
      "name": "noOfPlayers",
      "outputs": [
        {
          "internalType": "uint256",
          "name": "",
          "type": "uint256"
        }
      ],
      "stateMutability": "view",
      "type": "function"
    },
    {
      "inputs": [],
      "name": "owner",
      "outputs": [
        {
          "internalType": "address",
          "name": "",
          "type": "address"
        }
      ],
      "stateMutability": "view",
      "type": "function"
    },
    {
      "inputs": [
        {
          "internalType": "bytes",
          "name": "",
          "type": "bytes"
        }
      ],
      "name": "performUpkeep",
      "outputs": [],
      "stateMutability": "nonpayable",
      "type": "function"
    },
    {
      "inputs": [
        {
          "internalType": "uint256",
          "name": "requestId",
          "type": "uint256"
        },
        {
          "internalType": "uint256[]",
          "name": "randomWords",
          "type": "uint256[]"
        }
      ],
      "name": "rawFulfillRandomWords",
      "outputs": [],
      "stateMutability": "nonpayable",
      "type": "function"
    },
    {
      "inputs": [],
      "name": "s_vrfCoordinator",
      "outputs": [
        {
          "internalType": "contract IVRFCoordinatorV2Plus",
          "name": "",
          "type": "address"
        }
      ],
      "stateMutability": "view",
      "type": "function"
    },
    {
      "inputs": [
        {
          "internalType": "address",
          "name": "_vrfCoordinator",
          "type": "address"
        }
      ],
      "name": "setCoordinator",
      "outputs": [],
      "stateMutability": "nonpayable",
      "type": "function"
    },
    {
      "inputs": [
        {
          "internalType": "address",
          "name": "to",
          "type": "address"
        }
      ],
      "name": "transferOwnership",
      "outputs": [],
      "stateMutability": "nonpayable",
      "type": "function"
    }
  ],
  "bytecode": "0x6101406040523480156200001257600080fd5b5060405162002a2f38038062002a2f8339818101604052810190620000389190620004dc565b85338060008073ffffffffffffffffffffffffffffffffffffffff168273ffffffffffffffffffffffffffffffffffffffff1603620000ae576040517f08c379a0000000000000000000000000000000000000000000000000000000008152600401620000a590620005d9565b60405180910390fd5b816000806101000a81548173ffffffffffffffffffffffffffffffffffffffff021916908373ffffffffffffffffffffffffffffffffffffffff160217905550600073ffffffffffffffffffffffffffffffffffffffff168173ffffffffffffffffffffffffffffffffffffffff1614620001355762000134816200028c60201b60201c565b5b505050600073ffffffffffffffffffffffffffffffffffffffff168173ffffffffffffffffffffffffffffffffffffffff16036200019f576040517fd92e233d00000000000000000000000000000000000000000000000000000000815260040160405180910390fd5b80600260006101000a81548173ffffffffffffffffffffffffffffffffffffffff021916908373ffffffffffffffffffffffffffffffffffffffff160217905550508461010081815250508573ffffffffffffffffffffffffffffffffffffffff1660808173ffffffffffffffffffffffffffffffffffffffff16815250508360a081815250508260c081815250508163ffffffff1660e08163ffffffff16815250506000600460146101000a81548160ff021916908360018111156200026b576200026a620005fb565b5b0217905550426005819055508061012081815250505050505050506200069c565b3373ffffffffffffffffffffffffffffffffffffffff168173ffffffffffffffffffffffffffffffffffffffff1603620002fd576040517f08c379a0000000000000000000000000000000000000000000000000000000008152600401620002f4906200067a565b60405180910390fd5b80600160006101000a81548173ffffffffffffffffffffffffffffffffffffffff021916908373ffffffffffffffffffffffffffffffffffffffff1602179055508073ffffffffffffffffffffffffffffffffffffffff1660008054906101000a900473ffffffffffffffffffffffffffffffffffffffff1673ffffffffffffffffffffffffffffffffffffffff167fed8889f560326eb138920d842192f0eb3dd22b4f139c87a2c57538e05bae127860405160405180910390a350565b600080fd5b600073ffffffffffffffffffffffffffffffffffffffff82169050919050565b6000620003ed82620003c0565b9050919050565b620003ff81620003e0565b81146200040b57600080fd5b50565b6000815190506200041f81620003f4565b92915050565b6000819050919050565b6200043a8162000425565b81146200044657600080fd5b50565b6000815190506200045a816200042f565b92915050565b6000819050919050565b620004758162000460565b81146200048157600080fd5b50565b60008151905062000495816200046a565b92915050565b600063ffffffff82169050919050565b620004b6816200049b565b8114620004c257600080fd5b50565b600081519050620004d681620004ab565b92915050565b60008060008060008060c08789031215620004fc57620004fb620003bb565b5b60006200050c89828a016200040e565b96505060206200051f89828a0162000449565b95505060406200053289828a0162000484565b94505060606200054589828a0162000449565b93505060806200055889828a01620004c5565b92505060a06200056b89828a0162000449565b9150509295509295509295565b600082825260208201905092915050565b7f43616e6e6f7420736574206f776e657220746f207a65726f0000000000000000600082015250565b6000620005c160188362000578565b9150620005ce8262000589565b602082019050919050565b60006020820190508181036000830152620005f481620005b2565b9050919050565b7f4e487b7100000000000000000000000000000000000000000000000000000000600052602160045260246000fd5b7f43616e6e6f74207472616e7366657220746f2073656c66000000000000000000600082015250565b60006200066260178362000578565b91506200066f826200062a565b602082019050919050565b60006020820190508181036000830152620006958162000653565b9050919050565b60805160a05160c05160e0516101005161012051612331620006fe60003960008181610a3501528181610a5d0152610ea5015260008181610400015261057001526000610810015260006107df015260006107b90152600050506123316000f3fe6080604052600436106101095760003560e01c806379ba5097116100955780639eccacf6116100645780639eccacf614610315578063c361ce8314610340578063d4980c411461036b578063e55ae4e814610396578063f2fde38b146103d357610109565b806379ba50971461027f5780638da5cb5b146102965780638ea98117146102c157806391ad27b4146102ea57610109565b8063320229eb116100dc578063320229eb146101975780634585e33b146101c2578063473f1ddc146101eb57806353a2c19a146102165780636e04ff0d1461024157610109565b806309bc33a71461010e578063115cbaf5146101395780631fe543e3146101645780632cfcc5391461018d575b600080fd5b34801561011a57600080fd5b506101236103fc565b604051610130919061169a565b60405180910390f35b34801561014557600080fd5b5061014e610424565b60405161015b919061172c565b60405180910390f35b34801561017057600080fd5b5061018b600480360381019061018691906117ec565b61043b565b005b610195610501565b005b3480156101a357600080fd5b506101ac610670565b6040516101b9919061169a565b60405180910390f35b3480156101ce57600080fd5b506101e960048036038101906101e491906118a2565b61067a565b005b3480156101f757600080fd5b50610200610937565b60405161020d9190611930565b60405180910390f35b34801561022257600080fd5b5061022b610961565b604051610238919061169a565b60405180910390f35b34801561024d57600080fd5b5061026860048036038101906102639190611a8c565b610970565b604051610276929190611b6f565b60405180910390f35b34801561028b57600080fd5b50610294610b02565b005b3480156102a257600080fd5b506102ab610c97565b6040516102b89190611930565b60405180910390f35b3480156102cd57600080fd5b506102e860048036038101906102e39190611bcb565b610cc0565b005b3480156102f657600080fd5b506102ff610ea1565b60405161030c919061169a565b60405180910390f35b34801561032157600080fd5b5061032a610ec9565b6040516103379190611c57565b60405180910390f35b34801561034c57600080fd5b50610355610eef565b604051610362919061169a565b60405180910390f35b34801561037757600080fd5b50610380610efc565b60405161038d919061169a565b60405180910390f35b3480156103a257600080fd5b506103bd60048036038101906103b89190611c72565b610f09565b6040516103ca9190611930565b60405180910390f35b3480156103df57600080fd5b506103fa60048036038101906103f59190611bcb565b610f51565b005b60007f0000000000000000000000000000000000000000000000000000000000000000905090565b6000600460149054906101000a900460ff16905090565b600260009054906101000a900473ffffffffffffffffffffffffffffffffffffffff1673ffffffffffffffffffffffffffffffffffffffff163373ffffffffffffffffffffffffffffffffffffffff16146104f15733600260009054906101000a900473ffffffffffffffffffffffffffffffffffffffff166040517f1cf993f40000000000000000000000000000000000000000000000000000000081526004016104e8929190611c9f565b60405180910390fd5b6104fc838383610f65565b505050565b60006001811115610515576105146116b5565b5b600460149054906101000a900460ff166001811115610537576105366116b5565b5b1461056e576040517f1425571c00000000000000000000000000000000000000000000000000000000815260040160405180910390fd5b7f00000000000000000000000000000000000000000000000000000000000000003410156105c8576040517fbd4e069500000000000000000000000000000000000000000000000000000000815260040160405180910390fd5b6003339080600181540180825580915050600190039060005260206000200160009091909190916101000a81548173ffffffffffffffffffffffffffffffffffffffff021916908373ffffffffffffffffffffffffffffffffffffffff1602179055503373ffffffffffffffffffffffffffffffffffffffff167f634f3211e3a4e43fee5a21ad9f87ca153b300fc78b1c557a2057dbe9c63bcb4760405160405180910390a2565b6000600554905090565b600061069460405180602001604052806000815250610970565b509050806107035747600380549050600460149054906101000a900460ff1660018111156106c5576106c46116b5565b5b6040517f3a8d60860000000000000000000000000000000000000000000000000000000081526004016106fa93929190611cc8565b60405180910390fd5b6001600460146101000a81548160ff02191690836001811115610729576107286116b5565b5b021790555061076c6040518060400160405280601a81526020017f52657175657374696e672072616e646f6d20776f7264732e2e2e000000000000815250611201565b6000600260009054906101000a900473ffffffffffffffffffffffffffffffffffffffff1673ffffffffffffffffffffffffffffffffffffffff16639b1c385e6040518060c001604052807f000000000000000000000000000000000000000000000000000000000000000081526020017f00000000000000000000000000000000000000000000000000000000000000008152602001600361ffff1681526020017f000000000000000000000000000000000000000000000000000000000000000063ffffffff168152602001600163ffffffff16815260200161086160405180602001604052806000151581525061129a565b8152506040518263ffffffff1660e01b81526004016108809190611e36565b6020604051808303816000875af115801561089f573d6000803e3d6000fd5b505050506040513d601f19601f820116820180604052508101906108c39190611e6d565b90506109046040518060400160405280601f81526020017f52616e646f6d20776f7264732072657175657374656420776974682049443a0081525082611332565b807f6700fef9fd9c98d6e3060eecfb082ea7ad01c71a1fbfdc8eaab73abf937ff3b260405160405180910390a250505050565b6000600460009054906101000a900473ffffffffffffffffffffffffffffffffffffffff16905090565b6000600163ffffffff16905090565b600060606000806001811115610989576109886116b5565b5b600460149054906101000a900460ff1660018111156109ab576109aa6116b5565b5b1490506109fa6040518060400160405280601881526020017f54696d65205374616d7020446966666572656e6365203a200000000000000000815250600554426109f59190611ec9565b611332565b610a596040518060400160405280600881526020017f496e74657276616c0000000000000000000000000000000000000000000000008152507f0000000000000000000000000000000000000000000000000000000000000000611332565b60007f000000000000000000000000000000000000000000000000000000000000000060055442610a8a9190611ec9565b11905060008060038054905011905060008047119050838015610aaa5750825b8015610ab35750815b8015610abc5750805b9550856040518060400160405280600281526020017f30780000000000000000000000000000000000000000000000000000000000008152509550955050505050915091565b600160009054906101000a900473ffffffffffffffffffffffffffffffffffffffff1673ffffffffffffffffffffffffffffffffffffffff163373ffffffffffffffffffffffffffffffffffffffff1614610b92576040517f08c379a0000000000000000000000000000000000000000000000000000000008152600401610b8990611f5a565b60405180910390fd5b60008060009054906101000a900473ffffffffffffffffffffffffffffffffffffffff169050336000806101000a81548173ffffffffffffffffffffffffffffffffffffffff021916908373ffffffffffffffffffffffffffffffffffffffff1602179055506000600160006101000a81548173ffffffffffffffffffffffffffffffffffffffff021916908373ffffffffffffffffffffffffffffffffffffffff1602179055503373ffffffffffffffffffffffffffffffffffffffff168173ffffffffffffffffffffffffffffffffffffffff167f8be0079c531659141344cd1fd0a4f28419497f9722a3daafe3b4186f6b6457e060405160405180910390a350565b60008060009054906101000a900473ffffffffffffffffffffffffffffffffffffffff16905090565b610cc8610c97565b73ffffffffffffffffffffffffffffffffffffffff163373ffffffffffffffffffffffffffffffffffffffff1614158015610d515750600260009054906101000a900473ffffffffffffffffffffffffffffffffffffffff1673ffffffffffffffffffffffffffffffffffffffff163373ffffffffffffffffffffffffffffffffffffffff1614155b15610dc05733610d5f610c97565b600260009054906101000a900473ffffffffffffffffffffffffffffffffffffffff166040517f061db9c1000000000000000000000000000000000000000000000000000000008152600401610db793929190611f7a565b60405180910390fd5b600073ffffffffffffffffffffffffffffffffffffffff168173ffffffffffffffffffffffffffffffffffffffff1603610e26576040517fd92e233d00000000000000000000000000000000000000000000000000000000815260040160405180910390fd5b80600260006101000a81548173ffffffffffffffffffffffffffffffffffffffff021916908373ffffffffffffffffffffffffffffffffffffffff1602179055507fd1a6a14209a385a964d036e404cb5cfb71f4000cdb03c9366292430787261be681604051610e969190611930565b60405180910390a150565b60007f0000000000000000000000000000000000000000000000000000000000000000905090565b600260009054906101000a900473ffffffffffffffffffffffffffffffffffffffff1681565b6000600361ffff16905090565b6000600380549050905090565b600060038281548110610f1f57610f1e611fb1565b5b9060005260206000200160009054906101000a900473ffffffffffffffffffffffffffffffffffffffff169050919050565b610f596113ce565b610f628161145e565b50565b610f866040518060600160405280602681526020016122d660269139611201565b600060038054905011610fce576040517f08c379a0000000000000000000000000000000000000000000000000000000008152600401610fc59061202c565b60405180910390fd5b600060038054905083836000818110610fea57610fe9611fb1565b5b90506020020135610ffb919061207b565b905060006003828154811061101357611012611fb1565b5b9060005260206000200160009054906101000a900473ffffffffffffffffffffffffffffffffffffffff16905080600460006101000a81548173ffffffffffffffffffffffffffffffffffffffff021916908373ffffffffffffffffffffffffffffffffffffffff160217905550600067ffffffffffffffff81111561109c5761109b611961565b5b6040519080825280602002602001820160405280156110ca5781602001602082028036833780820191505090505b50600390805190602001906110e09291906115d0565b506000600460146101000a81548160ff02191690836001811115611107576111066116b5565b5b02179055504260058190555060008173ffffffffffffffffffffffffffffffffffffffff1647604051611139906120dd565b60006040518083038185875af1925050503d8060008114611176576040519150601f19603f3d011682016040523d82523d6000602084013e61117b565b606091505b50509050806111b6576040517fa1d04b3900000000000000000000000000000000000000000000000000000000815260040160405180910390fd5b8173ffffffffffffffffffffffffffffffffffffffff167f5b690ec4a06fe979403046eaeea5b3ce38524683c3001f662c8b5a829632f7df60405160405180910390a2505050505050565b611297816040516024016112159190612136565b6040516020818303038152906040527f41304fac000000000000000000000000000000000000000000000000000000007bffffffffffffffffffffffffffffffffffffffffffffffffffffffff19166020820180517bffffffffffffffffffffffffffffffffffffffffffffffffffffffff838183161783525050505061158a565b50565b60607f92fd13387c7fe7befbc38d303d6468778fb9731bc4583f17d92989c6fcfdeaaa826040516024016112ce9190612183565b604051602081830303815290604052907bffffffffffffffffffffffffffffffffffffffffffffffffffffffff19166020820180517bffffffffffffffffffffffffffffffffffffffffffffffffffffffff83818316178352505050509050919050565b6113ca828260405160240161134892919061219e565b6040516020818303038152906040527fb60e72cc000000000000000000000000000000000000000000000000000000007bffffffffffffffffffffffffffffffffffffffffffffffffffffffff19166020820180517bffffffffffffffffffffffffffffffffffffffffffffffffffffffff838183161783525050505061158a565b5050565b60008054906101000a900473ffffffffffffffffffffffffffffffffffffffff1673ffffffffffffffffffffffffffffffffffffffff163373ffffffffffffffffffffffffffffffffffffffff161461145c576040517f08c379a00000000000000000000000000000000000000000000000000000000081526004016114539061221a565b60405180910390fd5b565b3373ffffffffffffffffffffffffffffffffffffffff168173ffffffffffffffffffffffffffffffffffffffff16036114cc576040517f08c379a00000000000000000000000000000000000000000000000000000000081526004016114c390612286565b60405180910390fd5b80600160006101000a81548173ffffffffffffffffffffffffffffffffffffffff021916908373ffffffffffffffffffffffffffffffffffffffff1602179055508073ffffffffffffffffffffffffffffffffffffffff1660008054906101000a900473ffffffffffffffffffffffffffffffffffffffff1673ffffffffffffffffffffffffffffffffffffffff167fed8889f560326eb138920d842192f0eb3dd22b4f139c87a2c57538e05bae127860405160405180910390a350565b6115a1816115996115a46115c5565b63ffffffff16565b50565b60006a636f6e736f6c652e6c6f679050600080835160208501845afa505050565b61165a819050919050565b828054828255906000526020600020908101928215611649579160200282015b828111156116485782518260006101000a81548173ffffffffffffffffffffffffffffffffffffffff021916908373ffffffffffffffffffffffffffffffffffffffff160217905550916020019190600101906115f0565b5b5090506116569190611664565b5090565b6116626122a6565b565b5b8082111561167d576000816000905550600101611665565b5090565b6000819050919050565b61169481611681565b82525050565b60006020820190506116af600083018461168b565b92915050565b7f4e487b7100000000000000000000000000000000000000000000000000000000600052602160045260246000fd5b600281106116f5576116f46116b5565b5b50565b6000819050611706826116e4565b919050565b6000611716826116f8565b9050919050565b6117268161170b565b82525050565b6000602082019050611741600083018461171d565b92915050565b6000604051905090565b600080fd5b600080fd5b61176481611681565b811461176f57600080fd5b50565b6000813590506117818161175b565b92915050565b600080fd5b600080fd5b600080fd5b60008083601f8401126117ac576117ab611787565b5b8235905067ffffffffffffffff8111156117c9576117c861178c565b5b6020830191508360208202830111156117e5576117e4611791565b5b9250929050565b60008060006040848603121561180557611804611751565b5b600061181386828701611772565b935050602084013567ffffffffffffffff81111561183457611833611756565b5b61184086828701611796565b92509250509250925092565b60008083601f84011261186257611861611787565b5b8235905067ffffffffffffffff81111561187f5761187e61178c565b5b60208301915083600182028301111561189b5761189a611791565b5b9250929050565b600080602083850312156118b9576118b8611751565b5b600083013567ffffffffffffffff8111156118d7576118d6611756565b5b6118e38582860161184c565b92509250509250929050565b600073ffffffffffffffffffffffffffffffffffffffff82169050919050565b600061191a826118ef565b9050919050565b61192a8161190f565b82525050565b60006020820190506119456000830184611921565b92915050565b600080fd5b6000601f19601f8301169050919050565b7f4e487b7100000000000000000000000000000000000000000000000000000000600052604160045260246000fd5b61199982611950565b810181811067ffffffffffffffff821117156119b8576119b7611961565b5b80604052505050565b60006119cb611747565b90506119d78282611990565b919050565b600067ffffffffffffffff8211156119f7576119f6611961565b5b611a0082611950565b9050602081019050919050565b82818337600083830152505050565b6000611a2f611a2a846119dc565b6119c1565b905082815260208101848484011115611a4b57611a4a61194b565b5b611a56848285611a0d565b509392505050565b600082601f830112611a7357611a72611787565b5b8135611a83848260208601611a1c565b91505092915050565b600060208284031215611aa257611aa1611751565b5b600082013567ffffffffffffffff811115611ac057611abf611756565b5b611acc84828501611a5e565b91505092915050565b60008115159050919050565b611aea81611ad5565b82525050565b600081519050919050565b600082825260208201905092915050565b60005b83811015611b2a578082015181840152602081019050611b0f565b60008484015250505050565b6000611b4182611af0565b611b4b8185611afb565b9350611b5b818560208601611b0c565b611b6481611950565b840191505092915050565b6000604082019050611b846000830185611ae1565b8181036020830152611b968184611b36565b90509392505050565b611ba88161190f565b8114611bb357600080fd5b50565b600081359050611bc581611b9f565b92915050565b600060208284031215611be157611be0611751565b5b6000611bef84828501611bb6565b91505092915050565b6000819050919050565b6000611c1d611c18611c13846118ef565b611bf8565b6118ef565b9050919050565b6000611c2f82611c02565b9050919050565b6000611c4182611c24565b9050919050565b611c5181611c36565b82525050565b6000602082019050611c6c6000830184611c48565b92915050565b600060208284031215611c8857611c87611751565b5b6000611c9684828501611772565b91505092915050565b6000604082019050611cb46000830185611921565b611cc16020830184611921565b9392505050565b6000606082019050611cdd600083018661168b565b611cea602083018561168b565b611cf7604083018461168b565b949350505050565b6000819050919050565b611d1281611cff565b82525050565b611d2181611681565b82525050565b600061ffff82169050919050565b611d3e81611d27565b82525050565b600063ffffffff82169050919050565b611d5d81611d44565b82525050565b600082825260208201905092915050565b6000611d7f82611af0565b611d898185611d63565b9350611d99818560208601611b0c565b611da281611950565b840191505092915050565b600060c083016000830151611dc56000860182611d09565b506020830151611dd86020860182611d18565b506040830151611deb6040860182611d35565b506060830151611dfe6060860182611d54565b506080830151611e116080860182611d54565b5060a083015184820360a0860152611e298282611d74565b9150508091505092915050565b60006020820190508181036000830152611e508184611dad565b905092915050565b600081519050611e678161175b565b92915050565b600060208284031215611e8357611e82611751565b5b6000611e9184828501611e58565b91505092915050565b7f4e487b7100000000000000000000000000000000000000000000000000000000600052601160045260246000fd5b6000611ed482611681565b9150611edf83611681565b9250828203905081811115611ef757611ef6611e9a565b5b92915050565b600082825260208201905092915050565b7f4d7573742062652070726f706f736564206f776e657200000000000000000000600082015250565b6000611f44601683611efd565b9150611f4f82611f0e565b602082019050919050565b60006020820190508181036000830152611f7381611f37565b9050919050565b6000606082019050611f8f6000830186611921565b611f9c6020830185611921565b611fa96040830184611921565b949350505050565b7f4e487b7100000000000000000000000000000000000000000000000000000000600052603260045260246000fd5b7f4e6f20706c617965727320696e2074686520726166666c652e00000000000000600082015250565b6000612016601983611efd565b915061202182611fe0565b602082019050919050565b6000602082019050818103600083015261204581612009565b9050919050565b7f4e487b7100000000000000000000000000000000000000000000000000000000600052601260045260246000fd5b600061208682611681565b915061209183611681565b9250826120a1576120a061204c565b5b828206905092915050565b600081905092915050565b50565b60006120c76000836120ac565b91506120d2826120b7565b600082019050919050565b60006120e8826120ba565b9150819050919050565b600081519050919050565b6000612108826120f2565b6121128185611efd565b9350612122818560208601611b0c565b61212b81611950565b840191505092915050565b6000602082019050818103600083015261215081846120fd565b905092915050565b61216181611ad5565b82525050565b60208201600082015161217d6000850182612158565b50505050565b60006020820190506121986000830184612167565b92915050565b600060408201905081810360008301526121b881856120fd565b90506121c7602083018461168b565b9392505050565b7f4f6e6c792063616c6c61626c65206279206f776e657200000000000000000000600082015250565b6000612204601683611efd565b915061220f826121ce565b602082019050919050565b60006020820190508181036000830152612233816121f7565b9050919050565b7f43616e6e6f74207472616e7366657220746f2073656c66000000000000000000600082015250565b6000612270601783611efd565b915061227b8261223a565b602082019050919050565b6000602082019050818103600083015261229f81612263565b9050919050565b7f4e487b7100000000000000000000000000000000000000000000000000000000600052605160045260246000fdfe656e74657265642066756c66696c6c52616e646f6d576f7264732066756e6374696f6e2e2e2ea2646970667358221220c99d066665e68574320e93b227cb3617ad8bcc246f45a12130974b27f5daa75364736f6c63430008130033",
  "linkReferences": {},
  "deployedLinkReferences": {}
}